S01E00006D6167696369616E735F736F63645F636C65616E65722E7372656319
S11300000C944A000C945C000C945C000C945C000E
S11300100C945C000C945C000C945C000C945C00EC
S11300200C945C000C945C000C945C000C945C00DC
S11300300C945C000C945C000C945C000C945C00CC
S11300400C945C000C945C000C945C000C945C00BC
S11300500C945C000C945C000C945C000C945C00AC
S11300600C945C000C945C000C945C000C945C009C
S11300700C945C0043044B0453045B0463046B045E
S113008073047B0483048B0493049B04A304AB04D4
S1130090B304BB0411241FBECFEFD4E0DEBFCDBF39
S11300A021E0A0E0B1E001C01D92A430B207E1F765
S11300B00E94A3030C94BB050C940000811114C08E
S11300C0611109C00E9421030E9443030E9421037D
S11300D00E945B0308950E9421030E9437030E943B
S11300E021030E945B030895611109C00E9421034A
S11300F00E9443030E9421030E944F0308950E941B
S113010021030E9443030E9421030E945B0308957C
S1130110811114C0611109C00E9421030E94370398
S11301200E9421030E945B0308950E9421030E9400
S113013037030E9421030E945B030895611109C0E3
S11301400E9421030E9443030E9421030E944F0343
S113015008950E9421030E9443030E9421030E94E8
S11301605B030895811114C0611109C00E94210329
S11301700E9443030E9421030E944F0308950E949A
S113018021030E9437030E9421030E945B03089508
S1130190611109C00E9421030E9443030E942103AC
S11301A00E944F0308950E9421030E9443030E946A
S11301B021030E945B03089590910101923009F498
S11301C04FC028F4992351F0913039F108959330B8
S11301D009F46EC0943009F48EC00895811108C0EA
S11301E00E9421030E94370381E080930101089556
S11301F0611108C00E9421030E944F0383E0809391
S1130200010108950E9421030E9443030E942103D7
S11302100E945B03109201010895882339F00E9423
S113022021030E94430310920101089561110CC03F
S11302300E9421030E9443030E9421030E944F0352
S113024082E08093010108950E9421030E945B03D0
S11302500E9421030E94370381E0809301010895E5
S1130260882361F00E9421030E9443030E9421031A
S11302700E944F0383E0809301010895662361F097
S11302800E9421030E945B030E9421030E94370302
S113029081E08093010108950E9421030E94430399
S11302A00E9421030E944F0382E08093010108957C
S11302B0662339F00E9421030E945B03109201011E
S11302C0089581110CC00E9421030E945B030E94C7
S11302D021030E94370384E08093010108950E9462
S11302E021030E9443030E9421030E944F0383E0E1
S11302F0809301010895662361F00E9421030E9406
S11303005B030E9421030E94370381E08093010173
S11303100895882361F00E9421030E9443030E94F0
S113032021030E944F0383E08093010108950E94FA
S113033021030E945B030E9421030E94370384E08F
S1130340809301010895811114C0611109C00E94B4
S113035021030E9473030E9421030E948B030895CA
S11303600E9421030E9467030E9421030E948B03C1
S11303700895611109C00E9421030E9473030E9421
S113038021030E947F0308950E9421030E947303A6
S11303900E9421030E948B030895811114C06111EE
S11303A009C00E9421030E9467030E9421030E9446
S11303B08B0308950E9421030E9467030E94210376
S11303C00E948B030895611109C00E9421030E94B9
S11303D073030E9421030E947F0308950E94210356
S11303E00E9473030E9421030E948B0308958111CC
S11303F014C0611109C00E9421030E9473030E946A
S113040021030E947F0308950E9421030E94670331
S11304100E9421030E948B030895611109C00E9468
S113042021030E9473030E9421030E947F03089505
S11304300E9421030E9473030E9421030E948B03E4
S1130440089590910001923009F44FC028F4992343
S113045051F0913039F10895933009F46EC094301D
S113046009F48EC00895811108C00E9421030E94DE
S1130470670381E0809300010895611108C00E9420
S113048021030E947F0383E08093000108950E946A
S113049021030E9473030E9421030E948B03109284
S11304A000010895882339F00E9421030E947303F8
S11304B010920001089561110CC00E9421030E9452
S11304C073030E9421030E947F0382E08093000152
S11304D008950E9421030E948B030E9421030E941D
S11304E0670381E0809300010895882361F00E94EE
S11304F021030E9473030E9421030E947F0383E06F
S1130500809300010895662361F00E9421030E94F4
S11305108B030E9421030E94670381E08093000102
S113052008950E9421030E9473030E9421030E94E4
S11305307F0382E0809300010895662339F00E94CE
S113054021030E948B0310920001089581110CC0B5
S11305500E9421030E948B030E9421030E946703CF
S113056084E08093000108950E9421030E94730394
S11305700E9421030E947F0383E080930001089579
S1130580662361F00E9421030E948B030E942103D1
S11305900E94670381E0809300010895882361F03D
S11305A00E9421030E9473030E9421030E947F037F
S11305B083E08093000108950E9421030E948B032D
S11305C00E9421030E94670384E080930001089540
S11305D086B18078089583B180780895379B02C0EE
S11305E035990AC0379B02C0359B08C0379908C0AB
S11305F0359908C083E0089580E0089581E0089566
S113060083E0089582E00895369B02C034990AC0BD
S1130610369B02C0349B08C0369908C0349908C080
S113062083E0089580E0089581E0089583E00895CB
S113063082E0089586B182FB882780F991E08927BA
S11306400895499B02C04A990AC0499B02C04A9B2B
S113065008C0499908C04A9908C083E0089580E019
S1130660089581E0089583E0089582E0089581115A
S113067002C05C980895813011F45B98089582302B
S113068009F45E980895811102C05C9A089581303E
S113069011F45B9A0895823009F45E9A08958111E9
S11306A002C05B980895813011F45C9808958230FB
S11306B009F45B980895811102C05B9A0895813012
S11306C011F45C9A0895823009F45B9A08958111BB
S11306D002C05E980895813011F45D9808958230C7
S11306E009F45E980895811102C05E9A08958130DC
S11306F011F45D9A0895823009F45E9A0895811187
S113070002C05D980895813011F45E980895823096
S113071009F45E980895811102C05D9A08958130AC
S113072011F45E9A0895823009F45C9A089583B1B5
S11307308270089583B18170089583B1887008959B
S113074083B18470089514B817B81AB815B818B8D6
S11307501BB8289A299A2A9A2B9A479A459A469A14
S1130760449A429A599A5A9A2F9A539A549A559A51
S1130770569A80E00E94430380E00E945B0380E07D
S11307800E94730380E00E948B038EE290E00E943B
S1130790A105803118F01092030102C08093030177
S11307A0E1E8F0E0808181608083109202010F2EE5
S11307B0F4E8EF2EF12CF02D0E941A0381114BC0A6
S11307C00E949A03D82F0E949703C82F0E94EE021A
S11307D0811105C06D2F8C2F0E945E0016C00E94EF
S11307E0EE02813029F46D2F8C2F0E9488000DC0F9
S11307F00E94EE02823029F46D2F8C2F0E94B200E9
S113080004C06D2F8C2F0E94DC000E949D03D82F02
S11308100E94A003C82F0E940403811105C06D2FFC
S11308208C2F0E94A301C8CF0E940403813029F4B5
S11308306D2F8C2F0E94CD01BFCF0E940403823004
S113084029F46D2F8C2F0E94F701B6CF6D2F8C2FBA
S11308500E942102B1CF0E949D03D82F0E94A003C1
S1130860C82F0E949A03182F0E949703E091030156
S11308704E2F50E04031510508F084C0FA01E65C87
S1130880FF4F0C949B05612F0E945E006D2F8C2FEF
S11308900E94A30177C0612F0E945E006D2F8C2FF0
S11308A00E94CD016FC0612F0E945E006D2F8C2FBE
S11308B00E94F70167C0612F0E945E006D2F8C2F8C
S11308C00E9421025FC0612F0E9488006D2F8C2F2F
S11308D00E94A30157C0612F0E9488006D2F8C2FA6
S11308E00E94CD014FC0612F0E9488006D2F8C2F74
S11308F00E94F70147C0612F0E9488006D2F8C2F42
S11309000E9421023FC0612F0E94B2006D2F8C2FE4
S11309100E94A30137C0612F0E94B2006D2F8C2F5B
S11309200E94CD012FC0612F0E94B2006D2F8C2F29
S11309300E94F70127C0612F0E94B2006D2F8C2FF7
S11309400E9421021FC0612F0E94DC006D2F8C2F9A
S11309500E94A30117C0612F0E94DC006D2F8C2F11
S11309600E94CD010FC0612F0E94DC006D2F8C2FDF
S11309700E94F70107C0612F0E94DC006D2F8C2FAD
S11309800E942102F701808191818F34934C08F4F5
S1130990CCC00E94E80281111CC00E9497038111FF
S11309A015C00E949A03811111C00E94A0038111F5
S11309B00DC00E949D03811109C0809102018F5FC7
S11309C080930201F70111821082AFC010920201DC
S11309D0F3CE0E94EB02811109C0809102018F5F66
S11309E080930201F701118210829FC010920201CC
S11309F0E3CEC4E60E949D03182F0E94A003082F93
S1130A000E949A03D82F0E949703811139C0D111F3
S1130A101EC001110EC0111106C060E08EE290E00C
S1130A200E94A9056AC061E08EE290E00E94A905D7
S1130A3064C0111106C062E08EE290E00E94A90534
S1130A405CC063E08EE290E00E94A90556C00111EB
S1130A5009C0112309F44CC064E08EE290E00E94C6
S1130A60A9054BC0111106C066E08EE290E00E9419
S1130A70A90543C067E08EE290E00E94A9053DC04D
S1130A80D1111EC001110EC0111106C068E08EE222
S1130A9090E00E94A90531C069E08EE290E00E94D6
S1130AA0A9052BC0111106C06AE08EE290E00E94F5
S1130AB0A90523C06BE08EE290E00E94A9051DC049
S1130AC001110EC0111106C06CE08EE290E00E948C
S1130AD0A90513C06DE08EE290E00E94A9050DC047
S1130AE0111106C06EE08EE290E00E94A90505C0D7
S1130AF06FE08EE290E00E94A90581EE94E00197F8
S1130B00F1F700C000008EE290E00E94A1058093FE
S1130B100301E3EDF0E33197F1F700C00000C150A9
S1130B2009F068CF1092020147CE80910201853608
S1130B3008F05FCF41CEEE0FFF1F0590F491E02D3A
S1130B400994F999FECF92BD81BDF89A992780B591
S1130B500895262FF999FECF92BD81BDF89A019789
S1130B6000B4021639F01FBA20BD0FB6F894FA9AF1
S10D0B70F99A0FBE0895F894FFCF20
S9030000FC
