S01E00006D6167696369616E735F736F63645F636C65616E65722E7372656319
S11300000C944A000C945C000C945C000C945C000E
S11300100C945C000C945C000C945C000C945C00EC
S11300200C945C000C945C000C945C000C945C00DC
S11300300C945C000C945C000C945C000C945C00CC
S11300400C945C000C945C000C945C000C945C00BC
S11300500C945C000C945C000C945C000C945C00AC
S11300600C945C000C945C000C945C000C945C009C
S11300700C945C0048045004580460046804700440
S113008078048004880490049804A004A804B004AC
S1130090B804C00411241FBECFEFD4E0DEBFCDBF2F
S11300A021E0A0E0B1E001C01D92A430B207E1F765
S11300B00E949D030C9474050C940000811114C0DB
S11300C0611109C00E941B030E943D030E941B038F
S11300D00E94550308950E941B030E9431030E944D
S11300E01B030E9455030895611109C00E941B035C
S11300F00E943D030E941B030E94490308950E942D
S11301001B030E943D030E941B030E945503089594
S1130110811114C0611109C00E941B030E943103A4
S11301200E941B030E94550308950E941B030E9412
S113013031030E941B030E9455030895611109C0F5
S11301400E941B030E943D030E941B030E9449035B
S113015008950E941B030E943D030E941B030E94FA
S113016055030895811114C0611109C00E941B0335
S11301700E943D030E941B030E94490308950E94AC
S11301801B030E9431030E941B030E945503089520
S1130190611109C00E941B030E943D030E941B03BE
S11301A00E94490308950E941B030E943D030E947C
S11301B01B030E945503089590910101923009F4A4
S11301C04FC028F4992351F0913039F108959330B8
S11301D009F46EC0943009F48EC00895811108C0EA
S11301E00E941B030E94310381E080930101089562
S11301F0611108C00E941B030E94490383E080939D
S1130200010108950E941B030E943D030E941B03E9
S11302100E945503109201010895882339F00E9429
S11302201B030E943D0310920101089561110CC04B
S11302300E941B030E943D030E941B030E9449036A
S113024082E08093010108950E941B030E945503DC
S11302500E941B030E94310381E0809301010895F1
S1130260882361F00E941B030E943D030E941B032C
S11302700E94490383E0809301010895662361F09D
S11302800E941B030E9455030E941B030E9431031A
S113029081E08093010108950E941B030E943D03A5
S11302A00E941B030E94490382E080930101089588
S11302B0662339F00E941B030E945503109201012A
S11302C0089581110CC00E941B030E9455030E94D3
S11302D01B030E94310384E08093010108950E946E
S11302E01B030E943D030E941B030E94490383E0F9
S11302F0809301010895662361F00E941B030E940C
S113030055030E941B030E94310381E08093010185
S11303100895882361F00E941B030E943D030E94FC
S11303201B030E94490383E08093010108950E9406
S11303301B030E9455030E941B030E94310384E0A7
S1130340809301010895811114C0611109C00E94B4
S11303501B030E946D030E941B030E9485030895E2
S11303600E941B030E9461030E941B030E948503D9
S11303700895611109C00E941B030E946D030E942D
S11303801B030E94790308950E941B030E946D03BE
S11303900E941B030E9485030895811114C06111FA
S11303A009C00E941B030E9461030E941B030E9458
S11303B0850308950E941B030E9461030E941B038E
S11303C00E9485030895611109C00E941B030E94C5
S11303D06D030E941B030E94790308950E941B036E
S11303E00E946D030E941B030E94850308958111DE
S11303F014C0611109C00E941B030E946D030E9476
S11304001B030E94790308950E941B030E94610349
S11304100E941B030E9485030895611109C00E9474
S11304201B030E946D030E941B030E94790308951D
S11304300E941B030E946D030E941B030E948503FC
S1130440089590910001923009F44FC028F4992343
S113045051F0913039F10895933009F46EC094301D
S113046009F48EC00895811108C00E941B030E94E4
S1130470610381E0809300010895611108C00E9426
S11304801B030E94790383E08093000108950E9476
S11304901B030E946D030E941B030E94850310929C
S11304A000010895882339F00E941B030E946D0304
S11304B010920001089561110CC00E941B030E9458
S11304C06D030E941B030E94790382E08093000164
S11304D008950E941B030E9485030E941B030E942F
S11304E0610381E0809300010895882361F00E94F4
S11304F01B030E946D030E941B030E94790383E087
S1130500809300010895662361F00E941B030E94FA
S113051085030E941B030E94610381E08093000114
S113052008950E941B030E946D030E941B030E94F6
S1130530790382E0809300010895662339F00E94D4
S11305401B030E94850310920001089581110CC0C1
S11305500E941B030E9485030E941B030E946103E7
S113056084E08093000108950E941B030E946D03A0
S11305700E941B030E94790383E080930001089585
S1130580662361F00E941B030E9485030E941B03E3
S11305900E94610381E0809300010895882361F043
S11305A00E941B030E946D030E941B030E94790397
S11305B083E08093000108950E941B030E94850339
S11305C00E941B030E94610384E08093000108954C
S11305D0379B02C035990AC0379B02C0359B08C0BF
S11305E0379908C0359908C083E0089580E00895DC
S11305F081E0089583E0089582E00895369B02C067
S113060034990AC0369B02C0349B08C0369908C08E
S1130610349908C083E0089580E0089581E0089546
S113062083E0089582E0089586B182FB882780F9EB
S113063091E089270895499B02C04A990AC0499BC1
S113064002C04A9B08C0499908C04A9908C083E07F
S1130650089580E0089581E0089583E0089582E09C
S11306600895811102C05C980895813011F45B985B
S11306700895823009F45E980895811102C05C9A4D
S11306800895813011F45B9A0895823009F45E9ADA
S11306900895811102C05B980895813011F45C982B
S11306A00895823009F45B980895811102C05B9A21
S11306B00895813011F45C9A0895823009F45B9AAC
S11306C00895811102C05E980895813011F45D98F7
S11306D00895823009F45E980895811102C05E9AEB
S11306E00895813011F45D9A0895823009F45E9A78
S11306F00895811102C05D980895813011F45E98C7
S11307000895823009F45E980895811102C05D9ABB
S11307100895813011F45E9A0895823009F45C9A48
S1130720089583B18270089583B18170089583B16F
S11307308870089583B18470089514B817B81AB8EE
S113074015B818B81BB8289A299A2A9A2B9A479A46
S1130750459A469A449A429A599A5A9A2F9A539A7F
S1130760549A559A569A80E00E943D0380E00E9474
S1130770550380E00E946D0380E00E94850381E0C0
S113078080930301E1E8F0E080818160808310922E
S113079002010F2EFFE0FF2EF02D0F2EFEE0BF2EE4
S11307A0F02D0F2EFDE02F2EF02D0F2EFCE03F2E0E
S11307B0F02D0F2EFBE04F2EF02D0F2EFAE05F2EC2
S11307C0F02D0E94140381114BC00E949403D82F72
S11307D00E949103C82F0E94E802811105C06D2F69
S11307E08C2F0E945E0016C00E94E802813029F41A
S11307F06D2F8C2F0E9488000DC00E94E802823069
S113080029F46D2F8C2F0E94B20004C06D2F8C2F01
S11308100E94DC000E949703D82F0E949A03C82FDD
S11308200E94FE02811105C06D2F8C2F0E94A3012E
S1130830C8CF0E94FE02813029F46D2F8C2F0E94B4
S1130840CD01BFCF0E94FE02823029F46D2F8C2F80
S11308500E94F701B6CF6D2F8C2F0E942102B1CFD9
S11308600E949703D82F0E949A03C82F0E949403D2
S1130870182F0E949103E09103014E2F50E0403164
S1130880510508F084C0FA01E65CFF4F0C946E0534
S1130890612F0E945E006D2F8C2F0E94A30177C0F0
S11308A0612F0E945E006D2F8C2F0E94CD016FC0BE
S11308B0612F0E945E006D2F8C2F0E94F70167C08C
S11308C0612F0E945E006D2F8C2F0E9421025FC059
S11308D0612F0E9488006D2F8C2F0E94A30157C0A6
S11308E0612F0E9488006D2F8C2F0E94CD014FC074
S11308F0612F0E9488006D2F8C2F0E94F70147C042
S1130900612F0E9488006D2F8C2F0E9421023FC00E
S1130910612F0E94B2006D2F8C2F0E94A30137C05B
S1130920612F0E94B2006D2F8C2F0E94CD012FC029
S1130930612F0E94B2006D2F8C2F0E94F70127C0F7
S1130940612F0E94B2006D2F8C2F0E9421021FC0C4
S1130950612F0E94DC006D2F8C2F0E94A30117C011
S1130960612F0E94DC006D2F8C2F0E94CD010FC0DF
S1130970612F0E94DC006D2F8C2F0E94F70107C0AD
S1130980612F0E94DC006D2F8C2F0E942102E4E86D
S1130990F0E0808191818F34934C08F499C00E94D7
S11309A09103811116C00E949403811112C00E9408
S11309B09A0381110EC00E94970381110AC080918D
S11309C002018F5F80930201E4E8F0E0118210825B
S11309D07FC010920201F5CEC4E60F2EF9E06F2E0F
S11309E0F02D6894772473F80F2EF7E08F2EF02DF6
S11309F00F2EF6E09F2EF02D6894CC24C2F80F2E13
S1130A00F3E0DF2EF02D6894EE24E1F80E949703C2
S1130A10082F0E949A03182F0E949403D82F0E9433
S1130A209103811124C0D11113C0111109C0011106
S1130A3003C01092030140C081E0809303013CC0D5
S1130A40011103C0E092030137C0D092030134C006
S1130A50111105C0002371F1C09203012DC00111D1
S1130A6003C09092030128C08092030125C0D111D4
S1130A7012C0111108C0011103C0709203011CC0FF
S1130A806092030119C0011103C05092030114C004
S1130A904092030111C0111108C0011103C030922A
S1130AA003010AC02092030107C0011103C0B092E0
S1130AB0030102C0F092030183ED90E30197F1F783
S1130AC000C00000C15009F0A1CF1092020179CEFC
S1130AD080910201853608F07FCF73CEEE0FFF1FA1
S10F0AE00590F491E02D0994F894FFCFE8
S9030000FC
