S01E00006D6167696369616E735F736F63645F636C65616E65722E7372656319
S11300000C943A000C944C000C944C000C944C004E
S11300100C944C000C944C000C944C000C944C002C
S11300200C944C000C944C000C944C000C944C001C
S11300300C944C000C944C000C944C000C944C000C
S11300400C944C000C944C000C944C000C944C00FC
S11300500C944C000C944C000C944C000C944C00EC
S11300600C944C000C944C000C944C000C944C00DC
S11300700C944C0011241FBECFEFD4E0DEBFCDBFE3
S113008021E0A0E0B1E001C01D92A230B207E1F787
S11300900E94F5030C9408040C940000811114C010
S11300A0611109C00E9404030E9426030E940403F4
S11300B00E943E0308950E9404030E941A030E94B2
S11300C004030E943E030895611109C00E940403C1
S11300D00E9426030E9404030E94320308950E9492
S11300E004030E9426030E9404030E943E03089511
S11300F0811114C0611109C00E9404030E941A03F3
S11301000E9404030E943E0308950E9404030E9477
S11301101A030E9404030E943E030895611109C05A
S11301200E9404030E9426030E9404030E943203D7
S113013008950E9404030E9426030E9404030E945F
S11301403E030895811114C0611109C00E94040383
S11301500E9426030E9404030E94320308950E9411
S113016004030E941A030E9404030E943E0308959C
S1130170611109C00E9404030E9426030E94040323
S11301800E94320308950E9404030E9426030E94E1
S113019004030E943E03089590910101923009F4F2
S11301A04FC028F4992351F0913039F108959330D8
S11301B009F46EC0943009F48EC00895811108C00A
S11301C00E9404030E941A0381E0809301010895B0
S11301D0611108C00E9404030E94320383E08093EB
S11301E0010108950E9404030E9426030E9404034F
S11301F00E943E03109201010895882339F00E9461
S113020004030E94260310920101089561110CC099
S11302100E9404030E9426030E9404030E943203E6
S113022082E08093010108950E9404030E943E032A
S11302300E9404030E941A0381E08093010108953F
S1130240882361F00E9404030E9426030E94040391
S11302500E94320383E0809301010895662361F0D4
S11302600E9404030E943E030E9404030E941A0396
S113027081E08093010108950E9404030E942603F3
S11302800E9404030E94320382E0809301010895D6
S1130290662339F00E9404030E943E031092010178
S11302A0089581110CC00E9404030E943E030E9421
S11302B004030E941A0384E08093010108950E94BC
S11302C004030E9426030E9404030E94320383E075
S11302D0809301010895662361F00E9404030E9443
S11302E03E030E9404030E941A0381E080930101EB
S11302F00895882361F00E9404030E9426030E944B
S113030004030E94320383E08093010108950E9454
S113031004030E943E030E9404030E941A0384E023
S1130320809301010895811114C0611109C00E94D4
S113033004030E9456030E9404030E946E0308955E
S11303400E9404030E944A030E9404030E946E0355
S11303500895611109C00E9404030E9456030E947B
S113036004030E94620308950E9404030E9456033A
S11303700E9404030E946E030895811114C0611148
S113038009C00E9404030E944A030E9404030E94BD
S11303906E0308950E9404030E944A030E9404030A
S11303A00E946E030895611109C00E9404030E9413
S11303B056030E9404030E94620308950E940403EA
S11303C00E9456030E9404030E946E030895811143
S11303D014C0611109C00E9404030E9456030E94C4
S11303E004030E94620308950E9404030E944A03C6
S11303F00E9404030E946E030895611109C00E94C3
S113040004030E9456030E9404030E946203089599
S11304100E9404030E9456030E9404030E946E0378
S1130420089590910001923009F44FC028F4992363
S113043051F0913039F10895933009F46EC094303D
S113044009F48EC00895811108C00E9404030E941B
S11304504A0381E0809300010895611108C00E945D
S113046004030E94620383E08093000108950E94C4
S113047004030E9456030E9404030E946E03109218
S113048000010895882339F00E9404030E94560352
S113049010920001089561110CC00E9404030E948F
S11304A056030E9404030E94620382E080930001C9
S11304B008950E9404030E946E030E9404030E9494
S11304C04A0381E0809300010895882361F00E942B
S11304D004030E9456030E9404030E94620383E003
S11304E0809300010895662361F00E9404030E9432
S11304F06E030E9404030E944A0381E0809300017A
S113050008950E9404030E9456030E9404030E945B
S1130510620382E0809300010895662339F00E940B
S113052004030E946E0310920001089581110CC00F
S11305300E9404030E946E030E9404030E944A0363
S113054084E08093000108950E9404030E945603EE
S11305500E9404030E94620383E0809300010895D3
S1130560662361F00E9404030E946E030E94040348
S11305700E944A0381E0809300010895882361F07A
S11305800E9404030E9456030E9404030E94620313
S113059083E08093000108950E9404030E946E0387
S11305A00E9404030E944A0384E08093000108959A
S11305B0379B02C035990AC0379B02C0359B08C0DF
S11305C0379908C0359908C083E0089580E00895FC
S11305D081E0089583E0089582E00895369B02C087
S11305E034990AC0369B02C0349B08C0369908C0AF
S11305F0349908C083E0089580E0089581E0089567
S113060083E0089582E00895499B02C04A990AC094
S1130610499B02C04A9B08C0499908C04A9908C02E
S113062083E0089580E0089581E0089583E00895CB
S113063082E00895811102C05C980895813011F41C
S11306405B980895823009F45E980895811102C080
S11306505C9A0895813011F45B9A0895823009F40C
S11306605E9A0895811102C05B980895813011F457
S11306705C980895823009F45B980895811102C052
S11306805B9A0895813011F45C9A0895823009F4DC
S11306905B9A0895811102C05E980895813011F427
S11306A05D980895823009F45E980895811102C01E
S11306B05E9A0895813011F45D9A0895823009F4A8
S11306C05E9A0895811102C05D980895813011F4F5
S11306D05E980895823009F45E980895811102C0ED
S11306E05D9A0895813011F45E9A0895823009F478
S11306F05C9A089583B18270089583B181700895DE
S113070083B18870089583B184700895CF93DF9383
S1130710C82FD62F0E94D802811105C06D2F8C2FAF
S11307200E944E0016C00E94D802813029F46D2F19
S11307308C2F0E9478000DC00E94D802823029F4C8
S11307406D2F8C2F0E94A20004C06D2F8C2F0E944D
S1130750CC00DF91CF910895CF93DF93C82FD62F8C
S11307600E94EE02811105C06D2F8C2F0E9493010F
S113077016C00E94EE02813029F46D2F8C2F0E9446
S1130780BD010DC00E94EE02823029F46D2F8C2F22
S11307900E94E70104C06D2F8C2F0E941102DF918B
S11307A0CF91089514B817B81AB815B818B81BB86B
S11307B0289A299A2A9A2B9A479A459A469A449AA9
S11307C0429A599A5A9A2F9A539A549A559A569ADF
S11307D080E00E94260380E00E943E0380E00E94A5
S11307E0560380E00E946E0308950E94D2030E9483
S11307F07D03C82F0E947A036C2F0E9486030E94F7
S11308008003C82F0E9483036C2F0E94AC03EFCF98
S1070810F894FFCF86
S9030000FC
