:100000000C943A000C9457000C9457000C94570031
:100010000C9457000C9457000C9457000C94570004
:100020000C9457000C9457000C9457000C945700F4
:100030000C9457000C9457000C9457000C945700E4
:100040000C9457000C9457000C9457000C945700D4
:100050000C9457000C9457000C9457000C945700C4
:100060000C9457000C9457000C9457000C945700B4
:100070000C94570011241FBECFEFD4E0DEBFCDBFDC
:1000800011E0A0E0B1E0E6EDF7E002C005900D92CE
:10009000A030B107D9F721E0A0E0B1E001C01D9286
:1000A000A630B207E1F70E9431030C94E9030C94E7
:1000B000000090910101923009F44FC028F4992377
:1000C00051F0913039F10895933009F46EC09430B5
:1000D00009F48EC00895811108C00E94E7010E94B2
:1000E000490281E0809301010895611108C00E94D6
:1000F000E7010E94FF0183E08093010108950E94BF
:10010000E7010E946E020E94E7010E942402109201
:1001100001010895882339F00E94E7010E946E02D0
:1001200010920101089561110CC00E94E7010E9424
:100130006E020E94E7010E94FF0182E080930101AC
:1001400008950E94E7010E9424020E94E7010E9494
:10015000490281E0809301010895882361F00E94A3
:10016000E7010E946E020E94E7010E94FF0183E006
:10017000809301010895662361F00E94E7010E94C7
:1001800024020E94E7010E94490281E0809301015C
:1001900008950E94E7010E946E020E94E7010E94FA
:1001A000FF0182E0809301010895662339F00E94E7
:1001B000E7010E94240210920101089581110CC0F0
:1001C0000E94E7010E9424020E94E7010E94490266
:1001D00084E08093010108950E94E7010E946E026D
:1001E0000E94E7010E94FF0183E0809301010895CE
:1001F000662361F00E94E7010E9424020E94E70149
:100200000E94490281E0809301010895882361F0F2
:100210000E94E7010E946E020E94E7010E94FF0116
:1002200083E08093010108950E94E7010E94240267
:100230000E94E7010E94490284E080930101089531
:1002400090910001923009F44FC028F4992351F0A5
:10025000913039F10895933009F46EC0943009F467
:100260008EC00895811108C00E94E7010E94930288
:1002700081E0809300010895611108C00E94E701A8
:100280000E94DD0283E08093000108950E94E7014F
:100290000E94B8020E94E7010E940203109200012E
:1002A0000895882339F00E94E7010E94B802109255
:1002B0000001089561110CC00E94E7010E94B8027C
:1002C0000E94E7010E94DD0282E080930001089510
:1002D0000E94E7010E9402030E94E7010E9493022C
:1002E00081E0809300010895882361F00E94E70176
:1002F0000E94B8020E94E7010E94DD0283E0809321
:1003000000010895662361F00E94E7010E94020344
:100310000E94E7010E94930281E08093000108950A
:100320000E94E7010E94B8020E94E7010E94DD02DC
:1003300082E0809300010895662339F00E94E7016E
:100340000E94020310920001089581110CC00E94C6
:10035000E7010E9402030E94E7010E94930284E0E9
:100360008093000108950E94E7010E94B8020E9454
:10037000E7010E94DD0283E0809300010895662377
:1003800061F00E94E7010E9402030E94E7010E94BF
:10039000930281E0809300010895882361F00E9418
:1003A000E7010E94B8020E94E7010E94DD0283E09B
:1003B0008093000108950E94E7010E9402030E94B9
:1003C000E7010E94930284E0809300010895499B15
:1003D00002C04A990AC0499B02C04A9B08C0499979
:1003E00008C04A9908C083E0089580E0089581E03C
:1003F000089583E0089582E0089558980895CF9372
:10040000C82F88E390E00E94CF0380930201C111BE
:1004100006C0811102C05B9811C05B9A0FC0C13049
:1004200031F4811102C05C9809C05C9A07C0C230E7
:1004300029F4811102C05B9801C05B9A0E94FD0102
:10044000CF910895589A0895CF93C82F88E390E0EC
:100450000E94CF0380930201C11106C0811102C026
:100460005B9A11C05B980FC0C13031F4811102C09A
:100470005C9A09C05C9807C0C23029F4811102C09F
:100480005B9A01C05B980E942202CF9108952C983C
:100490000895CF93C82F88E390E00E94CF03809304
:1004A0000201C11106C0811102C05C9811C05C9AA2
:1004B0000FC0C13031F4811102C05B9809C05B9A52
:1004C00007C0C23029F4811102C05D9801C05D9A55
:1004D0000E944702CF9108952C9A0895CF93C82F78
:1004E00088E390E00E94CF0380930201C11106C00F
:1004F000811102C05C9A11C05C980FC0C13031F408
:10050000811102C05B9A09C05B9807C0C23029F410
:10051000811102C05D9A01C05D980E946C02CF916A
:1005200008952D980895CF93C82F88E390E00E94F6
:10053000CF0380930201C11106C0811102C05E98F1
:1005400011C05E9A0FC0C13031F4811102C05D98B4
:1005500009C05D9A07C0C23029F4811102C05E98BB
:1005600001C05E9A0E949102CF9108952D9A08953C
:10057000CF93C82F88E390E00E94CF0380930201BD
:10058000C11106C0811102C05E9A11C05E980FC0F1
:10059000C13031F4811102C05D9A09C05D9807C075
:1005A000C23029F4811102C05E9A01C05E980E9497
:1005B000B602CF9108952E980895CF93C82F88E35F
:1005C00090E00E94CF0380930201C11106C0811107
:1005D00002C05D9811C05D9A0FC0C13031F4811125
:1005E00002C05E9809C05E9A07C0C23029F481112A
:1005F00002C05C9801C05C9A0E94DB02CF91089512
:100600002E9A0895CF93C82F88E390E00E94CF03DD
:1006100080930201C11106C0811102C05D9A11C010
:100620005D980FC0C13031F4811102C05E9A09C0DB
:100630005E9807C0C23029F4811102C05C9A01C0E3
:100640005C980E940003CF91089583B18270089551
:1006500083B18170089583B18870089583B18470E7
:10066000089514B817B81AB815B818B81BB8289A4E
:10067000299A2A9A2B9A479A459A469A449A429AD4
:10068000599A5A9A2F9A539A549A559A569A509A16
:10069000249A259A269A579A0E942803811115C0F8
:1006A0000E942E03811111C088E390E00E94CF03C5
:1006B000811106C061E088E390E00E94D70305C085
:1006C00060E088E390E00E94D7030E942503811137
:1006D00008C00E942B03811104C081E080930301B4
:1006E00002C0109203010E946C020E9422020E942A
:1006F000B6020E94000388E390E00E94CF038111BC
:1007000003C00E94910202C00E94DB02809103019B
:10071000811103C00E94470202C00E94FD012FE721
:100720008AE196E0215080409040E1F700C000004F
:100730000E946C020E9422020E94B6020E940003E4
:1007400080E00E946E0280E00E94240280E00E940D
:10075000B80280E00E9402038EE290E00E94CF0384
:10076000803118F01092050102C080930501E1E884
:10077000F0E0808181608083109204010E94280350
:10078000C82F0E9425036C2F0E9459000E942B0342
:10079000C82F0E942E036C2F0E942001EFCFF999E1
:1007A000FECF92BD81BDF89A992780B50895262F76
:1007B000F999FECF92BD81BDF89A019700B4021657
:1007C00039F01FBA20BD0FB6F894FA9AF99A0FBE05
:0607D0000895F894FFCF2C
:00000001FF
