:100000000C944A000C9467000C9467000C946700F1
:100010000C9467000C9467000C9467000C946700C4
:100020000C9467000C9467000C9467000C946700B4
:100030000C9467000C9467000C9467000C946700A4
:100040000C9467000C9467000C9467000C94670094
:100050000C9467000C9467000C9467000C94670084
:100060000C9467000C9467000C9467000C94670074
:100070000C946700AD05B505BD05C505CD05D505D5
:10008000DD05E505ED05F505FD0505060D0615067D
:100090001D06250611241FBECFEFD4E0DEBFCDBF65
:1000A00011E0A0E0B1E0E8E5FEE002C005900D92AD
:1000B000A030B107D9F721E0A0E0B1E001C01D9266
:1000C000A630B207E1F70E9476040C942A070C943C
:1000D0000000811114C0611109C00E942C030E940C
:1000E000B3030E942C030E94690308950E942C030D
:1000F0000E948E030E942C030E94690308956111DF
:1001000009C00E942C030E94B3030E942C030E948A
:10011000440308950E942C030E94B3030E942C0301
:100120000E9469030895811114C0611109C00E94E1
:100130002C030E948E030E942C030E9469030895E1
:100140000E942C030E948E030E942C030E946903CC
:100150000895611109C00E942C030E94B3030E94FC
:100160002C030E94440308950E942C030E94B303B1
:100170000E942C030E9469030895811114C061112B
:1001800009C00E942C030E94B3030E942C030E940A
:10019000440308950E942C030E948E030E942C03A6
:1001A0000E9469030895611109C00E942C030E94F6
:1001B000B3030E942C030E94440308950E942C0361
:1001C0000E94B3030E942C030E946903089590913A
:1001D0000101923009F44FC028F4992351F0913075
:1001E00039F10895933009F46EC0943009F48EC04B
:1001F0000895811108C00E942C030E948E0381E0A3
:10020000809301010895611108C00E942C030E948F
:10021000440383E08093010108950E942C030E940F
:10022000B3030E942C030E946903109201010895F8
:10023000882339F00E942C030E94B303109201011D
:10024000089561110CC00E942C030E94B3030E9408
:100250002C030E94440382E08093010108950E94D0
:100260002C030E9469030E942C030E948E0381E0EC
:10027000809301010895882361F00E942C030E945D
:10028000B3030E942C030E94440383E08093010186
:100290000895662361F00E942C030E9469030E9466
:1002A0002C030E948E0381E08093010108950E9437
:1002B0002C030E94B3030E942C030E94440382E09B
:1002C000809301010895662339F00E942C030E9457
:1002D000690310920101089581110CC00E942C0342
:1002E0000E9469030E942C030E948E0384E0809385
:1002F000010108950E942C030E94B3030E942C0365
:100300000E94440383E0809301010895662361F015
:100310000E942C030E9469030E942C030E948E03FA
:1003200081E0809301010895882361F00E942C03ED
:100330000E94B3030E942C030E94440383E0809335
:10034000010108950E942C030E9469030E942C035E
:100350000E948E0384E0809301010895811114C0EE
:10036000611109C00E942C030E94FD030E942C030E
:100370000E94470408950E942C030E94D8030E9403
:100380002C030E9447040895611109C00E942C03A8
:100390000E94FD030E942C030E94220408950E94E3
:1003A0002C030E94FD030E942C030E944704089521
:1003B000811114C0611109C00E942C030E94D8034E
:1003C0000E942C030E94470408950E942C030E945F
:1003D000D8030E942C030E9447040895611109C0AC
:1003E0000E942C030E94FD030E942C030E94220401
:1003F00008950E942C030E94FD030E942C030E947A
:1004000047040895811114C0611109C00E942C0392
:100410000E94FD030E942C030E94220408950E9462
:100420002C030E94D8030E942C030E9447040895C5
:10043000611109C00E942C030E94FD030E942C033D
:100440000E94220408950E942C030E94FD030E9432
:100450002C030E944704089590910001923009F402
:100460004FC028F4992351F0913039F10895933019
:1004700009F46EC0943009F48EC00895811108C04B
:100480000E942C030E94D80381E08093000108950C
:10049000611108C00E942C030E94220483E0809313
:1004A000000108950E942C030E94FD030E942C036A
:1004B0000E944704109200010895882339F00E9499
:1004C0002C030E94FD0310920001089561110CC0DD
:1004D0000E942C030E94FD030E942C030E94220410
:1004E00082E08093000108950E942C030E9447043B
:1004F0000E942C030E94D80381E08093000108959C
:10050000882361F00E942C030E94FD030E942C03AB
:100510000E94220483E0809300010895662361F025
:100520000E942C030E9447040E942C030E94D803BF
:1005300081E08093000108950E942C030E94FD0336
:100540000E942C030E94220482E0809300010895FF
:10055000662339F00E942C030E9447041092000188
:10056000089581110CC00E942C030E9447040E9430
:100570002C030E94D80384E08093000108950E9418
:100580002C030E94FD030E942C030E94220483E09E
:10059000809300010895662361F00E942C030E945D
:1005A00047040E942C030E94D80381E0809300013D
:1005B0000895882361F00E942C030E94FD030E948D
:1005C0002C030E94220483E08093000108950E947E
:1005D0002C030E9447040E942C030E94D80384E04D
:1005E00080930001089586B18078089583B1807862
:1005F0000895379B02C035990AC0379902C03599D2
:1006000008C0379B08C0359B08C083E0089580E090
:10061000089581E0089583E0089582E00895369B6F
:1006200002C034990AC0369B02C0349B08C0369978
:1006300008C0349908C083E0089580E0089581E0FF
:10064000089583E0089582E0089586B182FB8827AB
:1006500080F991E089270895499B02C04A990AC010
:10066000499B02C04A9B08C0499908C04A9908C0E2
:1006700083E0089580E0089581E0089583E008957F
:1006800082E0089558980895CF93C82F88E390E0AA
:100690000E94100780930201C11106C0811102C09F
:1006A0005B9811C05B9A0FC0C13031F4811102C058
:1006B0005C9809C05C9A07C0C23029F4811102C05D
:1006C0005B9801C05B9A0E944203CF910895589AAB
:1006D0000895CF93C82F88E390E00E94100780937D
:1006E0000201C11106C0811102C05B9A11C05B9862
:1006F0000FC0C13031F4811102C05C9A09C05C980E
:1007000007C0C23029F4811102C05B9A01C05B9816
:100710000E946703CF9108952C980895CF93C82F16
:1007200088E390E00E94100780930201C11106C087
:10073000811102C05C9811C05C9A0FC0C13031F4C5
:10074000811102C05B9809C05B9A07C0C23029F4CE
:10075000811102C05D9801C05D9A0E948C03CF9107
:1007600008952C9A0895CF93C82F88E390E00E94B3
:10077000100780930201C11106C0811102C05C9A6A
:1007800011C05C980FC0C13031F4811102C05B9A76
:1007900009C05B9807C0C23029F4811102C05D9A7C
:1007A00001C05D980E94B103CF9108952D980895DE
:1007B000CF93C82F88E390E00E9410078093020136
:1007C000C11106C0811102C05E9811C05E9A0FC0AF
:1007D000C13031F4811102C05D9809C05D9A07C033
:1007E000C23029F4811102C05E9801C05E9A0E9455
:1007F000D603CF9108952D9A0895CF93C82F88E3FB
:1008000090E00E94100780930201C11106C081117F
:1008100002C05E9A11C05E980FC0C13031F48111E0
:1008200002C05D9A09C05D9807C0C23029F48111E9
:1008300002C05E9A01C05E980E94FB03CF910895AA
:100840002E980895CF93C82F88E390E00E94100758
:1008500080930201C11106C0811102C05D9811C0D0
:100860005D9A0FC0C13031F4811102C05E9809C099
:100870005E9A07C0C23029F4811102C05C9801C0A1
:100880005C9A0E942004CF9108952E9A0895CF93E8
:10089000C82F88E390E00E94100780930201C111E5
:1008A00006C0811102C05D9A11C05D980FC0C130B1
:1008B00031F4811102C05E9A09C05E9807C0C2304F
:1008C00029F4811102C05C9A01C05C980E94450421
:1008D000CF91089583B18270089583B18170089596
:1008E00083B18870089583B18470089514B817B8DF
:1008F0001AB815B818B81BB8289A299A2A9A2B9AA8
:10090000479A459A469A449A429A599A5A9A2F9ADD
:10091000539A549A559A569A509A249A259A269AF6
:10092000579A60E088E390E00E9418070E946D04E7
:10093000811115C00E947304811111C088E390E0F9
:100940000E941007811106C061E088E390E00E94D8
:10095000180705C060E088E390E00E9418070E9435
:100960006A04811108C00E947004811104C081E0F2
:100970008093030102C0109203010E94B1030E9400
:1009800067030E94FB030E94450488E390E00E94F5
:100990001007811103C00E94D60302C00E942004E8
:1009A00080910301811103C00E948C0302C00E9448
:1009B00042032FE78AE196E0215080409040E1F722
:1009C00000C000000E94B1030E9467030E94FB0365
:1009D0000E94450480E00E94B30380E00E94690306
:1009E00080E00E94FD0380E00E9447048EE290E0D8
:1009F0000E941007803118F01092050102C0809308
:100A00000501E1E8F0E080818160808310920401BB
:100A10000F2EF4E8EF2EF12CF02D04E68091030167
:100A20008130A9F50E946A04811105C00E942C033F
:100A30000E948E0304C00E942C030E94B3030E94F4
:100A40006D04811105C00E942C030E94440304C060
:100A50000E942C030E9469030E947304811105C047
:100A60000E942C030E94D80304C00E942C030E9401
:100A7000FD030E947004811105C00E942C030E9496
:100A80002204D0CF0E942C030E944704CBCF0E94A7
:100A9000250381114BC00E946D04D82F0E946A0467
:100AA000C82F0E94F902811105C06D2F8C2F0E9462
:100AB000690016C00E94F902813029F46D2F8C2F35
:100AC0000E9493000DC00E94F902823029F46D2F1C
:100AD0008C2F0E94BD0004C06D2F8C2F0E94E70058
:100AE0000E947004D82F0E947304C82F0E940F0325
:100AF000811105C06D2F8C2F0E94AE018FCF0E94F7
:100B00000F03813029F46D2F8C2F0E94D80186CFDE
:100B10000E940F03823029F46D2F8C2F0E94020255
:100B20007DCF6D2F8C2F0E942C0278CF0E947004F5
:100B3000D82F0E947304C82F0E946D04182F0E94A2
:100B40006A044091050150E04031510508F084C02D
:100B5000FA01E65CFF4F0C940A07612F0E946900BE
:100B60006D2F8C2F0E94AE0177C0612F0E9469000B
:100B70006D2F8C2F0E94D8016FC0612F0E946900D9
:100B80006D2F8C2F0E94020267C0612F0E946900A6
:100B90006D2F8C2F0E942C025FC0612F0E9493004A
:100BA0006D2F8C2F0E94AE0157C0612F0E949300C1
:100BB0006D2F8C2F0E94D8014FC0612F0E9493008F
:100BC0006D2F8C2F0E94020247C0612F0E9493005C
:100BD0006D2F8C2F0E942C023FC0612F0E94BD0000
:100BE0006D2F8C2F0E94AE0137C0612F0E94BD0077
:100BF0006D2F8C2F0E94D8012FC0612F0E94BD0045
:100C00006D2F8C2F0E94020227C0612F0E94BD0011
:100C10006D2F8C2F0E942C021FC0612F0E94E700B5
:100C20006D2F8C2F0E94AE0117C0612F0E94E7002C
:100C30006D2F8C2F0E94D8010FC0612F0E94E700FA
:100C40006D2F8C2F0E94020207C0612F0E94E700C7
:100C50006D2F8C2F0E942C02F701808191818F349F
:100C6000934C80F10E94F30281111CC00E946A041F
:100C7000811115C00E946D04811111C00E9473047E
:100C800081110DC00E947004811109C0809104017E
:100C90008F5F80930401F7011182108213C01092BC
:100CA0000401BCCE0E94F602811109C080910401AA
:100CB0008F5F80930401F7011182108203C01092AC
:100CC0000401ACCE80910401853608F4A7CE5F9A6A
:100CD000D02F0E947004C82F0E947304182F0E9406
:100CE0006D04D82E0E946A0481113EC0D1101EC02E
:100CF00011110EC0C11106C060E08EE290E00E94AA
:100D000018076FC061E08EE290E00E94180769C08A
:100D1000C11106C062E08EE290E00E94180761C037
:100D200063E08EE290E00E9418075BC011110EC0D4
:100D3000C11106C064E08EE290E00E94180751C025
:100D400065E08EE290E00E9418074BC0C11106C01A
:100D500066E08EE290E00E94180743C067E08EE2F2
:100D600090E00E9418073DC0D1101EC011110EC0A6
:100D7000C11106C068E08EE290E00E94180731C001
:100D800069E08EE290E00E9418072BC0C11106C0F6
:100D90006AE08EE290E00E94180723C06BE08EE2CA
:100DA00090E00E9418071DC011110EC0C11106C0AD
:100DB0006CE08EE290E00E94180713C06DE08EE2B6
:100DC00090E00E9418070DC0C11106C06EE08EE2CF
:100DD00090E00E94180705C06FE08EE290E00E944C
:100DE000180781EE94E00197F1F700C000008EE251
:100DF00090E00E94100780930501E3EDF0E3319746
:100E0000F1F700C00000D15009F063CF1092040147
:100E10005F9804CEEE0FFF1F0590F491E02D09942A
:100E2000F999FECF92BD81BDF89A992780B50895B2
:100E3000262FF999FECF92BD81BDF89A019700B493
:100E4000021639F01FBA20BD0FB6F894FA9AF99A33
:080E50000FBE0895F894FFCFD6
:00000001FF
