:100000000C943A000C9457000C9457000C94570031
:100010000C9457000C9457000C9457000C94570004
:100020000C9457000C9457000C9457000C945700F4
:100030000C9457000C9457000C9457000C945700E4
:100040000C9457000C9457000C9457000C945700D4
:100050000C9457000C9457000C9457000C945700C4
:100060000C9457000C9457000C9457000C945700B4
:100070000C94570011241FBECFEFD4E0DEBFCDBFDC
:1000800011E0A0E0B1E0E8E4F9E002C005900D92D3
:10009000A030B107D9F721E0A0E0B1E001C01D9286
:1000A000A630B207E1F70E94EA030C94A2040C9474
:1000B0000000CF93DF93D82FC62F411115C08111B7
:1000C0002AC021110EC20E94A0020E9427030E9492
:1000D000A0020E94DD020E94A0020E944C030E9426
:1000E000A0020E94BB0329C2811115C02111F6C1D3
:1000F0006111FBC10E94A0020E9427030E94A0027E
:100100000E94B8020E94A0020E9471030E94A002F5
:100110000E94BB0312C2211115C0C111FAC14111C5
:10012000E4C10E94A0020E9427030E94A0020E9434
:10013000DD020E94A0020E9471030E94A0020E94A0
:100140009603FBC1C11115C04111A0C1D111B2C1AB
:100150000E94A0020E9402030E94A0020E94DD02EF
:100160000E94A0020E9471030E94A0020E94BB0391
:10017000E4C190910101923009F44FC028F4992311
:1001800051F0913039F1BBC0933009F46EC0943016
:1001900009F48EC0B4C0411108C00E94A0020E94A0
:1001A000020381E080930101AAC0211108C00E94CE
:1001B000A0020E94B80283E080930101A0C00E94C7
:1001C000A0020E9427030E94A0020E94DD0210925A
:1001D000010195C0442339F00E94A0020E94270328
:1001E000109201018CC021110CC00E94A0020E943B
:1001F00027030E94A0020E94B80282E080930101BE
:100200007EC00E94A0020E94DD020E94A0020E9405
:10021000020381E08093010172C0442361F00E94D7
:10022000A0020E9427030E94A0020E94B80283E05D
:100230008093010164C0222361F00E94A0020E9409
:10024000DD020E94A0020E94020381E0809301016E
:1002500056C00E94A0020E9427030E94A0020E9492
:10026000B80282E0809301014AC0222339F00E9443
:10027000A0020E94DD021092010141C041110CC098
:100280000E94A0020E94DD020E94A0020E940203BE
:1002900084E08093010133C00E94A0020E942703E2
:1002A0000E94A0020E94B80283E08093010127C04F
:1002B000222361F00E94A0020E94DD020E94A0029F
:1002C0000E94020381E08093010119C0442361F080
:1002D0000E94A0020E9427030E94A0020E94B8026E
:1002E00083E0809301010BC00E94A0020E94DD0206
:1002F0000E94A0020E94020384E080930101909179
:100300000001923009F44FC028F4992351F0913044
:1003100039F113C1933009F46EC0943009F48EC0E2
:100320000CC1D11108C00E94A0020E944C0381E0C0
:100330008093000102C1C11108C00E94A0020E9466
:10034000960383E080930001F8C00E94A0020E94FF
:1003500071030E94A0020E94BB0310920001EDC035
:10036000DD2339F00E94A0020E9471031092000167
:10037000E4C0C1110CC00E94A0020E9471030E943F
:10038000A0020E94960382E080930001D6C00E94E2
:10039000A0020E94BB030E94A0020E944C0381E0C5
:1003A00080930001CAC0DD2361F00E94A0020E9478
:1003B00071030E94A0020E94960383E080930001D3
:1003C000BCC0CC2361F00E94A0020E94BB030E942B
:1003D000A0020E944C0381E080930001AEC00E9405
:1003E000A0020E9471030E94A0020E94960382E074
:1003F00080930001A2C0CC2339F00E94A0020E9489
:10040000BB031092000199C0D1110CC00E94A00240
:100410000E94BB030E94A0020E944C0384E08093D0
:1004200000018BC00E94A0020E9471030E94A002E2
:100430000E94960383E0809300017FC0CC2361F08B
:100440000E94A0020E94BB030E94A0020E944C03D3
:1004500081E08093000171C0DD2361F00E94A00261
:100460000E9471030E94A0020E94960383E0809381
:10047000000163C00E94A0020E94BB030E94A00270
:100480000E944C0384E08093000157C080910101D9
:10049000823009F4C2CE38F4882309F486CE813044
:1004A00009F498CE2CCF833009F4DFCE843009F4E0
:1004B000FFCE25CF80910101823009F4AECE38F411
:1004C000882309F46ACE813009F484CE18CF8330B2
:1004D00009F4CBCE843009F4EBCE11CF6623B1F210
:1004E00048CE662309F434CE44CE80910101823097
:1004F00009F493CE38F4882309F457CE813009F4F7
:1005000069CEFDCE833009F4B0CE843009F4D0CE6C
:10051000F6CE80910101823009F47FCE38F4882331
:1005200009F439CE813009F455CEE9CE833009F48F
:10053000A5CE843009F4BCCEE2CEDF91CF910895F0
:10054000499B02C04A990AC0499B02C04A9B08C005
:10055000499908C04A9908C083E0089580E0089549
:1005600081E0089583E0089582E008955898089501
:10057000CF93C82F88E390E00E9488048093020103
:10058000C11106C0811102C05B9811C05B9A0FC0F7
:10059000C13031F4811102C05C9809C05C9A07C077
:1005A000C23029F4811102C05B9801C05B9A0E949D
:1005B000B602CF910895589A0895CF93C82F88E333
:1005C00090E00E94880480930201C11106C081114D
:1005D00002C05B9A11C05B980FC0C13031F4811129
:1005E00002C05C9A09C05C9807C0C23029F481112E
:1005F00002C05B9A01C05B980E94DB02CF91089514
:100600002C980895CF93C82F88E390E00E94880427
:1006100080930201C11106C0811102C05C9811C013
:100620005C9A0FC0C13031F4811102C05B9809C0DF
:100630005B9A07C0C23029F4811102C05D9801C0E5
:100640005D9A0E940003CF9108952C9A0895CF934C
:10065000C82F88E390E00E94880480930201C111B2
:1006600006C0811102C05C9A11C05C980FC0C130F5
:1006700031F4811102C05B9A09C05B9807C0C23097
:1006800029F4811102C05D9A01C05D980E94250382
:10069000CF9108952D980895CF93C82F88E390E0C7
:1006A0000E94880480930201C11106C0811102C01A
:1006B0005E9811C05E9A0FC0C13031F4811102C042
:1006C0005D9809C05D9A07C0C23029F4811102C04B
:1006D0005E9801C05E9A0E944A03CF9108952D9AB8
:1006E0000895CF93C82F88E390E00E9488048093F8
:1006F0000201C11106C0811102C05E9A11C05E984C
:100700000FC0C13031F4811102C05D9A09C05D98FB
:1007100007C0C23029F4811102C05E9A01C05E9800
:100720000E946F03CF9108952E980895CF93C82FFC
:1007300088E390E00E94880480930201C11106C002
:10074000811102C05D9811C05D9A0FC0C13031F4B3
:10075000811102C05E9809C05E9A07C0C23029F4B8
:10076000811102C05C9801C05C9A0E949403CF91F1
:1007700008952E9A0895CF93C82F88E390E00E94A1
:10078000880480930201C11106C0811102C05D9AE4
:1007900011C05D980FC0C13031F4811102C05E9A62
:1007A00009C05E9807C0C23029F4811102C05C9A6A
:1007B00001C05C980E94B903CF91089583B1827003
:1007C000089583B18170089583B18870089583B1CD
:1007D0008470089514B817B81AB815B818B81BB8AB
:1007E000289A299A2A9A2B9A479A459A469A449A7D
:1007F000429A599A5A9A2F9A539A549A559A569AB3
:10080000509A249A259A269A579A0E94E1038111B8
:1008100015C00E94E703811111C088E390E00E9497
:100820008804811106C061E088E390E00E94900492
:1008300005C060E088E390E00E9490040E94DE031F
:10084000811108C00E94E403811104C081E08093FB
:10085000030102C0109203010E9425030E94DB02E3
:100860000E946F030E94B90388E390E00E9488040D
:10087000811103C00E944A0302C00E949403809128
:100880000301811103C00E94000302C00E94B6024E
:100890002FE78AE196E0215080409040E1F700C0C8
:1008A00000000E9425030E94DB020E946F030E9449
:1008B000B90380E00E94270380E00E94DD0280E00F
:1008C0000E94710380E00E94BB038EE290E00E94D0
:1008D0008804803118F01092050102C08093050150
:1008E000E1E8F0E0808181608083109204010E9441
:1008F000E103182F0E94DE03D82F0E94E403C82FC3
:100900000E94E703212F4D2F6C2F0E945900EFCF3B
:10091000F999FECF92BD81BDF89A992780B50895C7
:10092000262FF999FECF92BD81BDF89A019700B4A8
:10093000021639F01FBA20BD0FB6F894FA9AF99A48
:080940000FBE0895F894FFCFEB
:00000001FF
