S01E00006D6167696369616E735F736F63645F636C65616E65722E7372656319
S11300000C943A000C944C000C944C000C944C004E
S11300100C944C000C944C000C944C000C944C002C
S11300200C944C000C944C000C944C000C944C001C
S11300300C944C000C944C000C944C000C944C000C
S11300400C944C000C944C000C944C000C944C00FC
S11300500C944C000C944C000C944C000C944C00EC
S11300600C944C000C944C000C944C000C944C00DC
S11300700C944C0011241FBECFEFD4E0DEBFCDBFE3
S113008021E0A0E0B1E001C01D92A030B207E1F789
S11300900E9469020C947C020C940000811114C02B
S11300A0611109C00E9478010E949A010E9478019E
S11300B00E94B20108950E9478010E948E010E945C
S11300C078010E94B2010895611109C00E9478016B
S11300D00E949A010E9478010E94A60108950E943C
S11300E078010E949A010E9478010E94B201089549
S11300F0811114C0611109C00E9478010E948E010F
S11301000E9478010E94B20108950E9478010E9421
S11301108E010E9478010E94B2010895611109C004
S11301200E9478010E949A010E9478010E94A6010F
S113013008950E9478010E949A010E9478010E9409
S1130140B2010895811114C0611109C00E9478019F
S11301500E949A010E9478010E94A60108950E94BB
S113016078010E948E010E9478010E94B2010895D4
S1130170611109C00E9478010E949A010E947801CD
S11301800E94A60108950E9478010E949A010E948B
S113019078010E94B20108950895811114C061117B
S11301A009C00E9478010E94CA010E9478010E943D
S11301B0E20108950E9478010E94BE010E94780124
S11301C00E94E2010895611109C00E9478010E9411
S11301D0CA010E9478010E94D60108950E94780104
S11301E00E94CA010E9478010E94E20108958111CF
S11301F014C0611109C00E9478010E94BE010E94CE
S113020078010E94E20108950E9478010E94BE01D3
S11302100E9478010E94E2010895611109C00E94C0
S113022078010E94CA010E9478010E94D6010895B3
S11302300E9478010E94CA010E9478010E94E20192
S11302400895811114C0611109C00E9478010E94AF
S1130250CA010E9478010E94D60108950E94780183
S11302600E94BE010E9478010E94E201089561117A
S113027009C00E9478010E94CA010E9478010E946C
S1130280D60108950E9478010E94CA010E94780153
S11302900E94E20108950895379B02C035990AC06F
S11302A0379B02C0359B08C0379908C0359908C0F0
S11302B083E0089580E0089581E0089583E008953F
S11302C082E00895369B02C034990AC0369B02C06E
S11302D0349B08C0369908C0349908C083E0089557
S11302E080E0089581E0089583E0089582E0089510
S11302F0499B02C04A990AC0499B02C04A9B08C054
S1130300499908C04A9908C083E0089580E0089597
S113031081E0089583E0089582E00895811102C088
S11303205C980895813011F45B980895823009F443
S11303305E980895811102C05C9A0895813011F489
S11303405B9A0895823009F45E9A0895811102C07F
S11303505B980895813011F45C980895823009F413
S11303605B980895811102C05B9A0895813011F45D
S11303705C9A0895823009F45B9A0895811102C051
S11303805E980895813011F45D980895823009F4DF
S11303905E980895811102C05E9A0895813011F427
S11303A05D9A0895823009F45E9A0895811102C01D
S11303B05D980895813011F45E980895823009F4AF
S11303C05E980895811102C05D9A0895813011F4F8
S11303D05E9A0895823009F45C9A089583B182701C
S11303E0089583B18170089583B18870089583B1AD
S11303F084700895CF93DF93C82FD62F0E944C01A9
S1130400811105C06D2F8C2F0E944E0016C00E94D2
S11304104C01813029F46D2F8C2F0E9478000DC07F
S11304200E944C01823029F46D2F8C2F0E94A2006F
S113043004C06D2F8C2F0E94CC00DF91CF910895C2
S1130440CF93DF93C82FD62F0E946201811105C07C
S11304506D2F8C2F0E94CD0016C00E946201813046
S113046029F46D2F8C2F0E94F7000DC00E946201A9
S1130470823029F46D2F8C2F0E94210104C06D2F2E
S11304808C2F0E944B01DF91CF91089514B817B8B7
S11304901AB815B818B81BB8289A299A2A9A2B9A08
S11304A0479A459A469A449A429A599A5A9A2F9A3E
S11304B0539A549A559A569A80E00E949A0180E081
S11304C00E94B20180E00E94CA0180E00E94E20121
S11304D008950E9446020E94F101C82F0E94EE0175
S11304E06C2F0E94FA010E94F401C82F0E94F701A8
S10F04F06C2F0E942002EFCFF894FFCF85
S9030000FC
