S01E00006D6167696369616E735F736F63645F636C65616E65722E7372656319
S11300000C943A000C9457000C9457000C9457002D
S11300100C9457000C9457000C9457000C94570000
S11300200C9457000C9457000C9457000C945700F0
S11300300C9457000C9457000C9457000C945700E0
S11300400C9457000C9457000C9457000C945700D0
S11300500C9457000C9457000C9457000C945700C0
S11300600C9457000C9457000C9457000C945700B0
S11300700C94570011241FBECFEFD4E0DEBFCDBFD8
S113008011E0A0E0B1E0E6E8F8E002C005900D92CE
S1130090A030B107D9F721E0A0E0B1E001C01D9282
S11300A0A630B207E1F70E9489030C9441040C9432
S11300B00000CF93DF93C82FD62F4111A1C1811126
S11300C0B3C12111C5C1611111C00E943F020E9438
S11300D0C6020E943F020E947C020E943F020E94CC
S11300E010030E943F020E943503C6C10E943F02D2
S11300F00E94C6020E943F020E947C020E943F02AC
S11301000E94EB020E943F020E945A03B5C10E9462
S11301103F020E94A10281E080930101AAC0211143
S113012008C00E943F020E94570283E080930101AD
S1130130A0C00E943F020E94C6020E943F020E9489
S11301407C021092010195C0442339F00E943F02C1
S11301500E94C602109201018CC021110CC00E94A1
S11301603F020E94C6020E943F020E94570282E0A0
S1130170809301017EC00E943F020E947C020E9483
S11301803F020E94A10281E08093010172C04423D6
S113019061F00E943F020E94C6020E943F020E9438
S11301A0570283E08093010164C0222361F00E941E
S11301B03F020E947C020E943F020E94A10281E051
S11301C08093010156C00E943F020E94C6020E9411
S11301D03F020E94570282E0809301014AC0222319
S11301E039F00E943F020E947C021092010141C03A
S11301F041110CC00E943F020E947C020E943F02F7
S11302000E94A10284E08093010133C00E943F0256
S11302100E94C6020E943F020E94570283E080931C
S1130220010127C0222361F00E943F020E947C0248
S11302300E943F020E94A10281E08093010119C043
S1130240442361F00E943F020E94C6020E943F02C2
S11302500E94570283E0809301010BC00E943F0279
S11302600E947C020E943F020E94A10284E08093CB
S1130270010190910001923009F44FC028F49923B0
S113028051F0913039F1F8C0933009F46EC09430D4
S113029009F48EC0F1C0C11108C00E943F020E943F
S11302A0EB0281E080930001E7C0D11108C00E94F5
S11302B03F020E94350383E080930001DDC00E9469
S11302C03F020E9410030E943F020E945A031092B0
S11302D00001D2C0CC2339F00E943F020E941003D7
S11302E010920001C9C0D1110CC00E943F020E94AB
S11302F010030E943F020E94350382E080930001B4
S1130300BBC00E943F020E945A030E943F020E9407
S1130310EB0281E080930001AFC0CC2361F00E9426
S11303203F020E9410030E943F020E94350383E0B3
S113033080930001A1C0DD2361F00E943F020E946E
S11303405A030E943F020E94EB0281E08093000165
S113035093C00E943F020E9410030E943F020E9429
S1130360350382E08093000187C0DD2339F00E94C9
S11303703F020E945A03109200017EC0C1110CC0BA
S11303800E943F020E945A030E943F020E94EB0215
S113039084E08093000170C00E943F020E94100319
S11303A00E943F020E94350383E08093000164C0F1
S11303B0DD2361F00E943F020E945A030E943F0223
S11303C00E94EB0281E08093000156C0CC2361F0CF
S11303D00E943F020E9410030E943F020E943503C4
S11303E083E08093000148C00E943F020E945A03A8
S11303F00E943F020E94EB0284E0809300013CC013
S113040080910101823009F4C2CE38F4882309F4C2
S113041086CE813009F498CE2CCF833009F4DFCE18
S1130420843009F4FFCE25CF80910101823009F494
S1130430AECE38F4882309F46ACE813009F48DCE27
S113044018CF833009F4CBCE843009F4EBCE11CF2E
S113045080910101823009F49ACE38F4882309F49A
S113046056CE813009F487CE04CF833009F4B7CE59
S1130470843009F4D7CEFDCEDF91CF910895499B06
S113048002C04A990AC0499B02C04A9B08C04999C4
S113049008C04A9908C083E0089580E0089581E087
S11304A0089583E0089582E0089558980895CF93BD
S11304B0C82F88E390E00E94270480930201C111B1
S11304C006C0811102C05B9811C05B9A0FC0C13095
S11304D031F4811102C05C9809C05C9A07C0C23033
S11304E029F4811102C05B9801C05B9A0E945502F5
S11304F0CF910895589A0895CF93C82F88E390E038
S11305000E94270480930201C11106C0811102C018
S11305105B9A11C05B980FC0C13031F4811102C0E5
S11305205C9A09C05C9807C0C23029F4811102C0EA
S11305305B9A01C05B980E947A02CF9108952C982F
S11305400895CF93C82F88E390E00E9427048093F6
S11305500201C11106C0811102C05C9811C05C9AED
S11305600FC0C13031F4811102C05B9809C05B9A9D
S113057007C0C23029F4811102C05D9801C05D9AA0
S11305800E949F02CF9108952C9A0895CF93C82F6B
S113059088E390E00E94270480930201C11106C001
S11305A0811102C05C9A11C05C980FC0C13031F453
S11305B0811102C05B9A09C05B9807C0C23029F45C
S11305C0811102C05D9A01C05D980E94C402CF915E
S11305D008952D980895CF93C82F88E390E00E9442
S11305E0270480930201C11106C0811102C05E98E4
S11305F011C05E9A0FC0C13031F4811102C05D9800
S113060009C05D9A07C0C23029F4811102C05E9806
S113061001C05E9A0E94E902CF9108952D9A08952F
S1130620CF93C82F88E390E00E94270480930201AF
S1130630C11106C0811102C05E9A11C05E980FC03C
S1130640C13031F4811102C05D9A09C05D9807C0C0
S1130650C23029F4811102C05E9A01C05E980E94E2
S11306600E03CF9108952E980895CF93C82F88E351
S113067090E00E94270480930201C11106C08111F9
S113068002C05D9811C05D9A0FC0C13031F4811170
S113069002C05E9809C05E9A07C0C23029F4811175
S11306A002C05C9801C05C9A0E943303CF91089504
S11306B02E9A0895CF93C82F88E390E00E942704D0
S11306C080930201C11106C0811102C05D9A11C05C
S11306D05D980FC0C13031F4811102C05E9A09C027
S11306E05E9807C0C23029F4811102C05C9A01C02F
S11306F05C980E945803CF91089583B18270089545
S113070083B18170089583B18870089583B1847032
S1130710089514B817B81AB815B818B81BB8289A99
S1130720299A2A9A2B9A479A459A469A449A429A1F
S1130730599A5A9A2F9A539A549A559A569A509A61
S1130740249A259A269A579A0E948003811115C0EB
S11307500E948603811111C088E390E00E9427045F
S1130760811106C061E088E390E00E942F0405C077
S113077060E088E390E00E942F040E947D038111D1
S113078008C00E948303811104C081E080930301A7
S113079002C0109203010E94C4020E947A020E94C5
S11307A00E030E94580388E390E00E9427048111FD
S11307B003C00E94E90202C00E9433038091030136
S11307C0811103C00E949F0202C00E9455022FE7BC
S11307D08AE196E0215080409040E1F700C000009B
S11307E00E94C4020E947A020E940E030E945803CF
S11307F080E00E94C60280E00E947C0280E00E94A9
S1130800100380E00E945A038EE290E00E942704C5
S1130810803118F01092050102C080930501E1E8CF
S1130820F0E0808181608083109204010E94800343
S1130830182F0E947D03D82F0E948303C82F0E9483
S11308408603212F4D2F6C2F0E945900EFCFF99969
S1130850FECF92BD81BDF89A992780B50895262FC1
S1130860F999FECF92BD81BDF89A019700B40216A2
S113087039F01FBA20BD0FB6F894FA9AF99A0FBE50
S10908800895F894FFCF77
S9030000FC
