:100000000C9443000C9460000C9460000C9460000D
:100010000C9460000C9460000C9460000C946000E0
:100020000C9460000C9460000C9460000C946000D0
:100030000C9460000C9460000C9460000C946000C0
:100040000C9460000C9460000C9460000C946000B0
:100050000C9460000C9460000C9460000C946000A0
:100060000C9460000C9460000C9460000C94600090
:100070000C94600073009B00E20028016D01B10147
:10008000F4013702790211241FBECFEFD4E0DEBFA6
:10009000CDBF11E0A0E0B1E0E8EBF9E002C00590CF
:1000A0000D92A230B107D9F721E0A2E0B1E001C082
:1000B0001D92A630B207E1F70E941C040C94DA04EA
:1000C0000C9400000F931F93922FE09100010E2FCC
:1000D00010E0F8013A97E930F10508F060C2E65CFB
:1000E000FF4F0C94BA04811108C00E94D2020E94F2
:1000F0007E038FE08093000152C2611108C00E940C
:10010000D2020E94C80381E18093000148C24111DC
:1001100008C00E94D2020E9434038BE08093000149
:100120003EC291113CC20E94D2020E94EA028DE0BE
:100130008093000134C24423D9F09923D9F0882355
:1001400009F421C2662321F10E94D2020E945903C0
:100150000E94D2020E940F030E94D2020E94A303B7
:100160000E94D2020E94ED038AE08093000117C230
:1001700091110CC00E94D2020E9459030E94D20227
:100180000E94EA028CE08093000109C261110CC058
:100190000E94D2020E9459030E94D2020E94C80308
:1001A0008CE080930001FBC18111F9C10E94D20251
:1001B0000E9459030E94D2020E947E038CE0809329
:1001C0000001EDC141111AC09923D1F0882331F10A
:1001D000662391F10E94D2020E940F030E94D20274
:1001E0000E94A3030E94D2020E94ED030E94D20249
:1001F0000E9434038BE080930001D1C191110CC0A7
:100200008DE0809300010E9410048111C8C10E94FA
:1002100013048823C1F3C3C181110CC08FE0809304
:1002200000010E9410048111BAC10E9419048823A0
:10023000C1F3B5C16111B3C181E1809300010E9496
:1002400010048111ACC10E9416048823C1F3A7C118
:100250004423D9F0992329F1882309F497C166230F
:1002600011F10E94D2020E9459030E94D2020E9400
:100270000F030E94D2020E94A3030E94D2020E9496
:10028000ED038AE0809300018AC10E94D2020E949D
:100290000F030E94D2020E9434038EE0809300017B
:1002A0007EC161110CC00E94D2020E940F030E9405
:1002B000D2020E94C8038EE08093000170C18111B8
:1002C0006EC10E94D2020E940F030E94D2020E94BD
:1002D0007E038EE08093000162C14423D1F091112E
:1002E00024C0882321F1662381F10E94D2020E945A
:1002F00059030E94D2020E94A3030E94D2020E94CC
:10030000ED030E94D2020E94EA028DE08093000178
:1003100046C18BE0809300010E94130481113FC10C
:100320000E9410048823C1F33AC181110CC08FE0F0
:10033000809300010E941304811131C10E941904AD
:100340008823C1F32CC161112AC181E1809300018E
:100350000E941304811123C10E9416048823C1F353
:100360001EC14423D9F09923D9F0882309F411C17F
:10037000662311F10E94D2020E9459030E94D20208
:100380000E940F030E94D2020E94A3030E94D20285
:100390000E94ED038AE08093000101C19111FCC02D
:1003A0000E94D2020E94A3030E94D2020E94EA028B
:1003B00080E180930001F3C00E94D2020E94A30357
:1003C0000E94D2020E94C80380E180930001E7C02E
:1003D0000E94D2020E94A3030E94D2020E94340310
:1003E00080E180930001DBC0442309F4C6C0992357
:1003F000C1F081112EC0662371F10E94D2020E94C9
:100400000F030E94D2020E9459030E94D2020E944E
:10041000ED030E94D2020E947E038FE080930001D0
:10042000BEC08DE0809300010E9419048111B7C005
:100430000E9413048823C1F3B2C08BE080930001B3
:100440000E9419048111ABC00E9410048823C1F3DB
:10045000A6C06111A4C081E1809300010E9419042B
:1004600081119DC00E9416048823C1F398C04423C3
:1004700009F486C09923C9F0882379F1662309F429
:100480008EC00E94D2020E9459030E94D2020E9492
:100490000F030E94D2020E94A3030E94D2020E9474
:1004A000ED038AE0809300017AC00E94D2020E948C
:1004B000ED030E94D2020E94EA0282E180930001D1
:1004C0006EC00E94D2020E94ED030E94D2020E94DE
:1004D000340382E18093000162C00E94D2020E9434
:1004E000ED030E94D2020E947E0382E1809300010C
:1004F00056C04423D1F09923D1F0882331F1611102
:100500004EC00E94D2020E940F030E94D2020E949B
:10051000A3030E94D2020E94ED030E94D2020E9415
:10052000340381E1809300013AC091110CC08DE049
:10053000809300010E941604811131C00E941304AF
:100540008823C1F32CC081110CC08FE0809300017F
:100550000E941604811123C00E9419048823C1F34C
:100560001EC08BE0809300010E941604811117C009
:100570000E9410048823C1F312C091115ECF51CFA5
:1005800091119FCF92CF611111CE02CE611199CE00
:100590008ACE611104C010CF61111ACF0DCF1F9107
:1005A0000F910895499B02C04A990AC0499B02C015
:1005B0004A9B08C0499908C04A9908C083E0089539
:1005C00080E0089581E0089583E0089582E0089531
:1005D00058980895CF93C82F88E390E00E94C004F4
:1005E00080930201C11106C0811102C05B9811C045
:1005F0005B9A0FC0C13031F4811102C05C9809C010
:100600005C9A07C0C23029F4811102C05B9801C016
:100610005B9A0E94E802CF910895589A0895CF936B
:10062000C82F88E390E00E94C00480930201C111AA
:1006300006C0811102C05B9A11C05B980FC0C13027
:1006400031F4811102C05C9A09C05C9807C0C230C5
:1006500029F4811102C05B9A01C05B980E940D03CE
:10066000CF9108952C980895CF93C82F88E390E0F8
:100670000E94C00480930201C11106C0811102C012
:100680005C9811C05C9A0FC0C13031F4811102C076
:100690005B9809C05B9A07C0C23029F4811102C07F
:1006A0005D9801C05D9A0E943203CF9108952C9A03
:1006B0000895CF93C82F88E390E00E94C0048093F0
:1006C0000201C11106C0811102C05C9A11C05C9880
:1006D0000FC0C13031F4811102C05B9A09C05B9830
:1006E00007C0C23029F4811102C05D9A01C05D9833
:1006F0000E945703CF9108952D980895CF93C82F46
:1007000088E390E00E94C00480930201C11106C0FA
:10071000811102C05E9811C05E9A0FC0C13031F4E1
:10072000811102C05D9809C05D9A07C0C23029F4EA
:10073000811102C05E9801C05E9A0E947C03CF9135
:1007400008952D9A0895CF93C82F88E390E00E94D2
:10075000C00480930201C11106C0811102C05E9ADB
:1007600011C05E980FC0C13031F4811102C05D9A92
:1007700009C05D9807C0C23029F4811102C05E9A99
:1007800001C05E980E94A103CF9108952E9808950C
:10079000CF93C82F88E390E00E94C00480930201A9
:1007A000C11106C0811102C05D9811C05D9A0FC0D1
:1007B000C13031F4811102C05E9809C05E9A07C051
:1007C000C23029F4811102C05C9801C05C9A0E9479
:1007D000C603CF9108952E9A0895CF93C82F88E32A
:1007E00090E00E94C00480930201C11106C08111F3
:1007F00002C05D9A11C05D980FC0C13031F4811103
:1008000002C05E9A09C05E9807C0C23029F4811107
:1008100002C05C9A01C05C980E94EB03CF910895DE
:1008200083B18270089583B18170089583B1887017
:10083000089583B18470089514B817B81AB815B81C
:1008400018B81BB8289A299A2A9A2B9A479A459A37
:10085000469A449A429A599A5A9A2F9A539A549A73
:10086000559A569A509A249A259A269A579A0E94EF
:100870001304811115C00E941904811111C088E36D
:1008800090E00E94C004811106C061E088E390E01E
:100890000E94C80405C060E088E390E00E94C8049C
:1008A0000E941004811108C00E941604811104C026
:1008B00081E08093030102C0109203010E9457035C
:1008C0000E940D030E94A1030E94EB0388E390E0C5
:1008D0000E94C004811103C00E947C0302C00E94D8
:1008E000C60380910301811103C00E94320302C03C
:1008F0000E94E8022FE78AE196E021508040904074
:10090000E1F700C000000E9457030E940D030E94FF
:10091000A1030E94EB0380E00E94590380E00E9443
:100920000F0380E00E94A30380E00E94ED038EE2AB
:1009300090E00E94C004803118F01092050102C0BE
:1009400080930501E1E8F0E080818160808310926E
:1009500004010E941304182F0E941004D82F0E9433
:100960001604C82F0E941904212F4D2F6C2F0E94AE
:100970006200EFCFEE0FFF1F0590F491E02D099478
:10098000F999FECF92BD81BDF89A992780B5089557
:10099000262FF999FECF92BD81BDF89A019700B438
:1009A000021639F01FBA20BD0FB6F894FA9AF99AD8
:0809B0000FBE0895F894FFCF7B
:0209B8000A0033
:00000001FF
