S01E00006D6167696369616E735F736F63645F636C65616E65722E7372656319
S11300000C944A000C945C000C945C000C945C000E
S11300100C945C000C945C000C945C000C945C00EC
S11300200C945C000C945C000C945C000C945C00DC
S11300300C945C000C945C000C945C000C945C00CC
S11300400C945C000C945C000C945C000C945C00BC
S11300500C945C000C945C000C945C000C945C00AC
S11300600C945C000C945C000C945C000C945C009C
S11300700C945C003D0445044D0455045D04650482
S11300806D0475047D0485048D0495049D04A50404
S1130090AD04B50411241FBECFEFD4E0DEBFCDBF45
S11300A021E0A0E0B1E001C01D92A430B207E1F765
S11300B00E949D030C94A1050C940000811114C0AE
S11300C0611109C00E941B030E943D030E941B038F
S11300D00E94550308950E941B030E9431030E944D
S11300E01B030E9455030895611109C00E941B035C
S11300F00E943D030E941B030E94490308950E942D
S11301001B030E943D030E941B030E945503089594
S1130110811114C0611109C00E941B030E943103A4
S11301200E941B030E94550308950E941B030E9412
S113013031030E941B030E9455030895611109C0F5
S11301400E941B030E943D030E941B030E9449035B
S113015008950E941B030E943D030E941B030E94FA
S113016055030895811114C0611109C00E941B0335
S11301700E943D030E941B030E94490308950E94AC
S11301801B030E9431030E941B030E945503089520
S1130190611109C00E941B030E943D030E941B03BE
S11301A00E94490308950E941B030E943D030E947C
S11301B01B030E945503089590910101923009F4A4
S11301C04FC028F4992351F0913039F108959330B8
S11301D009F46EC0943009F48EC00895811108C0EA
S11301E00E941B030E94310381E080930101089562
S11301F0611108C00E941B030E94490383E080939D
S1130200010108950E941B030E943D030E941B03E9
S11302100E945503109201010895882339F00E9429
S11302201B030E943D0310920101089561110CC04B
S11302300E941B030E943D030E941B030E9449036A
S113024082E08093010108950E941B030E945503DC
S11302500E941B030E94310381E0809301010895F1
S1130260882361F00E941B030E943D030E941B032C
S11302700E94490383E0809301010895662361F09D
S11302800E941B030E9455030E941B030E9431031A
S113029081E08093010108950E941B030E943D03A5
S11302A00E941B030E94490382E080930101089588
S11302B0662339F00E941B030E945503109201012A
S11302C0089581110CC00E941B030E9455030E94D3
S11302D01B030E94310384E08093010108950E946E
S11302E01B030E943D030E941B030E94490383E0F9
S11302F0809301010895662361F00E941B030E940C
S113030055030E941B030E94310381E08093010185
S11303100895882361F00E941B030E943D030E94FC
S11303201B030E94490383E08093010108950E9406
S11303301B030E9455030E941B030E94310384E0A7
S1130340809301010895811114C0611109C00E94B4
S11303501B030E946D030E941B030E9485030895E2
S11303600E941B030E9461030E941B030E948503D9
S11303700895611109C00E941B030E946D030E942D
S11303801B030E94790308950E941B030E946D03BE
S11303900E941B030E9485030895811114C06111FA
S11303A009C00E941B030E9461030E941B030E9458
S11303B0850308950E941B030E9461030E941B038E
S11303C00E9485030895611109C00E941B030E94C5
S11303D06D030E941B030E94790308950E941B036E
S11303E00E946D030E941B030E94850308958111DE
S11303F014C0611109C00E941B030E946D030E9476
S11304001B030E94790308950E941B030E94610349
S11304100E941B030E9485030895611109C00E9474
S11304201B030E946D030E941B030E94790308951D
S11304300E941B030E946D030E941B030E948503FC
S1130440089590910001923009F44FC028F4992343
S113045051F0913039F10895933009F46EC094301D
S113046009F48EC00895811108C00E941B030E94E4
S1130470610381E0809300010895611108C00E9426
S11304801B030E94790383E08093000108950E9476
S11304901B030E946D030E941B030E94850310929C
S11304A000010895882339F00E941B030E946D0304
S11304B010920001089561110CC00E941B030E9458
S11304C06D030E941B030E94790382E08093000164
S11304D008950E941B030E9485030E941B030E942F
S11304E0610381E0809300010895882361F00E94F4
S11304F01B030E946D030E941B030E94790383E087
S1130500809300010895662361F00E941B030E94FA
S113051085030E941B030E94610381E08093000114
S113052008950E941B030E946D030E941B030E94F6
S1130530790382E0809300010895662339F00E94D4
S11305401B030E94850310920001089581110CC0C1
S11305500E941B030E9485030E941B030E946103E7
S113056084E08093000108950E941B030E946D03A0
S11305700E941B030E94790383E080930001089585
S1130580662361F00E941B030E9485030E941B03E3
S11305900E94610381E0809300010895882361F043
S11305A00E941B030E946D030E941B030E94790397
S11305B083E08093000108950E941B030E94850339
S11305C00E941B030E94610384E08093000108954C
S11305D0379B02C035990AC0379B02C0359B08C0BF
S11305E0379908C0359908C083E0089580E00895DC
S11305F081E0089583E0089582E00895369B02C067
S113060034990AC0369B02C0349B08C0369908C08E
S1130610349908C083E0089580E0089581E0089546
S113062083E0089582E0089586B182FB882780F9EB
S113063091E089270895499B02C04A990AC0499BC1
S113064002C04A9B08C0499908C04A9908C083E07F
S1130650089580E0089581E0089583E0089582E09C
S11306600895811102C05C980895813011F45B985B
S11306700895823009F45E980895811102C05C9A4D
S11306800895813011F45B9A0895823009F45E9ADA
S11306900895811102C05B980895813011F45C982B
S11306A00895823009F45B980895811102C05B9A21
S11306B00895813011F45C9A0895823009F45B9AAC
S11306C00895811102C05E980895813011F45D98F7
S11306D00895823009F45E980895811102C05E9AEB
S11306E00895813011F45D9A0895823009F45E9A78
S11306F00895811102C05D980895813011F45E98C7
S11307000895823009F45E980895811102C05D9ABB
S11307100895813011F45E9A0895823009F45C9A48
S1130720089583B18270089583B18170089583B16F
S11307308870089583B18470089514B817B81AB8EE
S113074015B818B81BB8289A299A2A9A2B9A479A46
S1130750459A469A449A429A599A5A9A2F9A539A7F
S1130760549A559A569A80E00E943D0380E00E9474
S1130770550380E00E946D0380E00E9485038EE2B1
S113078090E00E948705803118F01092030102C0A6
S113079080930301E1E8F0E080818160808310921E
S11307A002010F2EF4E8EF2EF12CF02D0E94140319
S11307B081114BC00E949403D82F0E949103C82F2B
S11307C00E94E802811105C06D2F8C2F0E945E00EB
S11307D016C00E94E802813029F46D2F8C2F0E94EC
S11307E088000DC00E94E802823029F46D2F8C2FFE
S11307F00E94B20004C06D2F8C2F0E94DC000E9466
S11308009703D82F0E949A03C82F0E94FE028111D9
S113081005C06D2F8C2F0E94A301C8CF0E94FE0239
S1130820813029F46D2F8C2F0E94CD01BFCF0E94FF
S1130830FE02823029F46D2F8C2F0E94F701B6CF6F
S11308406D2F8C2F0E942102B1CF0E949703D82FC5
S11308500E949A03C82F0E949403182F0E949103A8
S1130860E09103014E2F50E04031510508F084C05F
S1130870FA01E65CFF4F0C948105612F0E945E0033
S11308806D2F8C2F0E94A30177C0612F0E945E0000
S11308906D2F8C2F0E94CD016FC0612F0E945E00CE
S11308A06D2F8C2F0E94F70167C0612F0E945E009C
S11308B06D2F8C2F0E9421025FC0612F0E9488003F
S11308C06D2F8C2F0E94A30157C0612F0E948800B6
S11308D06D2F8C2F0E94CD014FC0612F0E94880084
S11308E06D2F8C2F0E94F70147C0612F0E94880052
S11308F06D2F8C2F0E9421023FC0612F0E94B200F5
S11309006D2F8C2F0E94A30137C0612F0E94B2006B
S11309106D2F8C2F0E94CD012FC0612F0E94B20039
S11309206D2F8C2F0E94F70127C0612F0E94B20007
S11309306D2F8C2F0E9421021FC0612F0E94DC00AA
S11309406D2F8C2F0E94A30117C0612F0E94DC0021
S11309506D2F8C2F0E94CD010FC0612F0E94DC00EF
S11309606D2F8C2F0E94F70107C0612F0E94DC00BD
S11309706D2F8C2F0E942102F701808191818F3489
S1130980934C08F4B8C00E949103811115C00E94D1
S11309909403811111C00E949A0381110DC00E9419
S11309A09703811109C0809102018F5F8093020136
S11309B0F701118210829FC010920201F7CEC4E6A3
S11309C00E949703182F0E949A03082F0E949403F1
S11309D0D82F0E949103811139C0D1111EC0011179
S11309E00EC0111106C060E08EE290E00E948F05F7
S11309F06AC061E08EE290E00E948F0564C011112C
S1130A0006C062E08EE290E00E948F055CC063E065
S1130A108EE290E00E948F0556C0011109C0112397
S1130A2009F44CC064E08EE290E00E948F054BC054
S1130A30111106C066E08EE290E00E948F0543C06B
S1130A4067E08EE290E00E948F053DC0D1111EC088
S1130A5001110EC0111106C068E08EE290E00E9400
S1130A608F0531C069E08EE290E00E948F052BC0B3
S1130A70111106C06AE08EE290E00E948F0523C047
S1130A806BE08EE290E00E948F051DC001110EC044
S1130A90111106C06CE08EE290E00E948F0513C035
S1130AA06DE08EE290E00E948F050DC0111106C02A
S1130AB06EE08EE290E00E948F0505C06FE08EE24A
S1130AC090E00E948F0581EE94E00197F1F700C059
S1130AD000008EE290E00E94870580930301E3ED1D
S1130AE0F0E33197F1F700C00000C15009F068CF7E
S1130AF0109202015BCE80910201853608F05FCF2F
S1130B0055CEEE0FFF1F0590F491E02D0994F9994D
S1130B10FECF92BD81BDF89A992780B50895262FFE
S1130B20F999FECF92BD81BDF89A019700B40216DF
S1130B3039F01FBA20BD0FB6F894FA9AF99A0FBE8D
S1090B400895F894FFCFB4
S9030000FC
