:100000000C944A000C945C000C945C000C945C0012
:100010000C945C000C945C000C945C000C945C00F0
:100020000C945C000C945C000C945C000C945C00E0
:100030000C945C000C945C000C945C000C945C00D0
:100040000C945C000C945C000C945C000C945C00C0
:100050000C945C000C945C000C945C000C945C00B0
:100060000C945C000C945C000C945C000C945C00A0
:100070000C945C0025042D0435043D0445044D0416
:1000800055045D0465046D0475047D0485048D04C8
:1000900095049D0411241FBECFEFD4E0DEBFCDBF79
:1000A00021E0A0E0B1E001C01D92A330B207E1F76A
:1000B0000E9499030C94AB040C940000811114C0AD
:1000C000611109C00E9417030E9439030E9417039F
:1000D0000E94510308950E9417030E942D030E945D
:1000E00017030E9451030895611109C00E9417036C
:1000F0000E9439030E9417030E94450308950E943D
:1001000017030E9439030E9417030E9451030895A8
:10011000811114C0611109C00E9417030E942D03B0
:100120000E9417030E94510308950E9417030E9422
:100130002D030E9417030E9451030895611109C005
:100140000E9417030E9439030E9417030E9445036F
:1001500008950E9417030E9439030E9417030E940A
:1001600051030895811114C0611109C00E94170341
:100170000E9439030E9417030E94450308950E94BC
:1001800017030E942D030E9417030E945103089534
:10019000611109C00E9417030E9439030E941703CE
:1001A0000E94450308950E9417030E9439030E948C
:1001B00017030E945103089590910101923009F4B0
:1001C0004FC028F4992351F0913039F108959330BC
:1001D00009F46EC0943009F48EC00895811108C0EE
:1001E0000E9417030E942D0381E08093010108956E
:1001F000611108C00E9417030E94450383E08093A9
:10020000010108950E9417030E9439030E941703F9
:100210000E945103109201010895882339F00E9431
:1002200017030E94390310920101089561110CC057
:100230000E9417030E9439030E9417030E9445037E
:1002400082E08093010108950E9417030E945103E8
:100250000E9417030E942D0381E0809301010895FD
:10026000882361F00E9417030E9439030E9417033C
:100270000E94450383E0809301010895662361F0A5
:100280000E9417030E9451030E9417030E942D032E
:1002900081E08093010108950E9417030E943903B1
:1002A0000E9417030E94450382E080930101089594
:1002B000662339F00E9417030E9451031092010136
:1002C000089581110CC00E9417030E9451030E94DF
:1002D00017030E942D0384E08093010108950E947A
:1002E00017030E9439030E9417030E94450383E00D
:1002F000809301010895662361F00E9417030E9414
:1003000051030E9417030E942D0381E08093010195
:100310000895882361F00E9417030E9439030E9408
:1003200017030E94450383E08093010108950E9412
:1003300017030E9451030E9417030E942D0384E0BB
:10034000809301010895811114C0611109C00E94B8
:1003500017030E9469030E9417030E9481030895F6
:100360000E9417030E945D030E9417030E948103ED
:100370000895611109C00E9417030E9469030E9439
:1003800017030E94750308950E9417030E946903D2
:100390000E9417030E9481030895811114C0611106
:1003A00009C00E9417030E945D030E9417030E9468
:1003B000810308950E9417030E945D030E941703A2
:1003C0000E9481030895611109C00E9417030E94D1
:1003D00069030E9417030E94750308950E94170382
:1003E0000E9469030E9417030E94810308958111EE
:1003F00014C0611109C00E9417030E9469030E9482
:1004000017030E94750308950E9417030E945D035D
:100410000E9417030E9481030895611109C00E9480
:1004200017030E9469030E9417030E947503089531
:100430000E9417030E9469030E9417030E94810310
:10044000089590910001923009F44FC028F4992347
:1004500051F0913039F10895933009F46EC0943021
:1004600009F48EC00895811108C00E9417030E94EC
:100470005D0381E0809300010895611108C00E942E
:1004800017030E94750383E08093000108950E9482
:1004900017030E9469030E9417030E9481031092B0
:1004A00000010895882339F00E9417030E94690310
:1004B00010920001089561110CC00E9417030E9460
:1004C00069030E9417030E94750382E08093000174
:1004D00008950E9417030E9481030E9417030E943F
:1004E0005D0381E0809300010895882361F00E94FC
:1004F00017030E9469030E9417030E94750383E09B
:10050000809300010895662361F00E9417030E9402
:1005100081030E9417030E945D0381E08093000124
:1005200008950E9417030E9469030E9417030E9406
:10053000750382E0809300010895662339F00E94DC
:1005400017030E94810310920001089581110CC0CD
:100550000E9417030E9481030E9417030E945D03FB
:1005600084E08093000108950E9417030E946903AC
:100570000E9417030E94750383E080930001089591
:10058000662361F00E9417030E9481030E941703F3
:100590000E945D0381E0809300010895882361F04B
:1005A0000E9417030E9469030E9417030E947503AB
:1005B00083E08093000108950E9417030E94810345
:1005C0000E9417030E945D0384E080930001089558
:1005D000379B02C035990AC0379B02C0359B08C0C3
:1005E000379908C0359908C083E0089580E00895E0
:1005F00081E0089583E0089582E00895369B02C06B
:1006000034990AC0369B02C0349B08C0369908C092
:10061000349908C083E0089580E0089581E008954A
:1006200083E0089582E0089586B181E00895499BB2
:1006300002C04A990AC0499B02C04A9B08C0499916
:1006400008C04A9908C083E0089580E0089581E0D9
:10065000089583E0089582E00895811102C05C98B6
:100660000895813011F45B980895823009F45E9802
:100670000895811102C05C9A0895813011F45B9A4B
:100680000895823009F45E9A0895811102C05B9842
:100690000895813011F45C980895823009F45B98D4
:1006A0000895811102C05B9A0895813011F45C9A1B
:1006B0000895823009F45B9A0895811102C05E9812
:1006C0000895813011F45D980895823009F45E98A0
:1006D0000895811102C05E9A0895813011F45D9AE7
:1006E0000895823009F45E9A0895811102C05D98E0
:1006F0000895813011F45E980895823009F45E986F
:100700000895811102C05D9A0895813011F45E9AB6
:100710000895823009F45C9A089583B18270089537
:1007200083B18170089583B18870089583B1847016
:10073000089514B817B81AB815B818B81BB8289A7D
:10074000299A2A9A2B9A479A459A469A449A429A03
:10075000599A5A9A2F9A539A549A559A569A80E0CF
:100760000E94390380E00E94510380E00E946903E7
:1007700080E00E94810381E0809302010E941403C3
:1007800081114BC00E949003D82F0E948D03C82F67
:100790000E94E802811105C06D2F8C2F0E945E001F
:1007A00016C00E94E802813029F46D2F8C2F0E9420
:1007B00088000DC00E94E802823029F46D2F8C2F32
:1007C0000E94B20004C06D2F8C2F0E94DC000E949A
:1007D0009303D82F0E949603C82F0E94FE02811116
:1007E00005C06D2F8C2F0E94A301C8CF0E94FE026E
:1007F000813029F46D2F8C2F0E94CD01BFCF0E9434
:10080000FE02823029F46D2F8C2F0E94F701B6CFA3
:100810006D2F8C2F0E942102B1CF0E949303D82FFD
:100820000E949603C82F0E949003182F0E948D03E8
:10083000E09102014E2F50E04031510508F09ECF6B
:10084000FA01E65CFF4F0C94A504612F0E945E0044
:100850006D2F8C2F0E94A30191CF612F0E945E000B
:100860006D2F8C2F0E94CD0189CF612F0E945E00D9
:100870006D2F8C2F0E94F70181CF612F0E945E00A7
:100880006D2F8C2F0E94210279CF612F0E9488004A
:100890006D2F8C2F0E94A30171CF612F0E948800C1
:1008A0006D2F8C2F0E94CD0169CF612F0E9488008F
:1008B0006D2F8C2F0E94F70161CF612F0E9488005D
:1008C0006D2F8C2F0E94210259CF612F0E94B20000
:1008D0006D2F8C2F0E94A30151CF612F0E94B20077
:1008E0006D2F8C2F0E94CD0149CF612F0E94B20045
:1008F0006D2F8C2F0E94F70141CF612F0E94B20013
:100900006D2F8C2F0E94210239CF612F0E94DC00B5
:100910006D2F8C2F0E94A30131CF612F0E94DC002C
:100920006D2F8C2F0E94CD0129CF612F0E94DC00FA
:100930006D2F8C2F0E94F70121CF612F0E94DC00C8
:100940006D2F8C2F0E94210219CFEE0FFF1F0590F3
:0A095000F491E02D0994F894FFCF14
:00000001FF
