S01E00006D6167696369616E735F736F63645F636C65616E65722E7372656319
S11300000C944A000C945C000C945C000C945C000E
S11300100C945C000C945C000C945C000C945C00EC
S11300200C945C000C945C000C945C000C945C00DC
S11300300C945C000C945C000C945C000C945C00CC
S11300400C945C000C945C000C945C000C945C00BC
S11300500C945C000C945C000C945C000C945C00AC
S11300600C945C000C945C000C945C000C945C009C
S11300700C945C0067046F0477047F0487048F0486
S113008097049F04A704AF04B704BF04C704CF04B4
S1130090D704DF0411241FBECFEFD4E0DEBFCDBFF1
S11300A021E0A0E0B1E001C01D92A430B207E1F765
S11300B00E94C3030C94DF050C940000811114C04A
S11300C0611109C00E9421030E9469030E94210357
S11300D00E94490308950E9421030E9459030E942B
S11300E021030E9449030895611109C00E9421035C
S11300F00E9469030E9421030E94390308950E940B
S113010021030E9469030E9421030E944903089568
S1130110811114C0611109C00E9421030E94590376
S11301200E9421030E94490308950E9421030E9412
S113013059030E9421030E9449030895611109C0D3
S11301400E9421030E9469030E9421030E94390333
S113015008950E9421030E9469030E9421030E94C2
S113016049030895811114C0611109C00E9421033B
S11301700E9469030E9421030E94390308950E948A
S113018021030E9459030E9421030E9449030895F8
S1130190611109C00E9421030E9469030E94210386
S11301A00E94390308950E9421030E9469030E945A
S11301B021030E944903089590910101923009F4AA
S11301C04FC028F4992351F0913039F108959330B8
S11301D009F46EC0943009F48EC00895811108C0EA
S11301E00E9421030E94590381E080930101089534
S11301F0611108C00E9421030E94390383E08093A7
S1130200010108950E9421030E9469030E942103B1
S11302100E944903109201010895882339F00E9435
S113022021030E94690310920101089561110CC019
S11302300E9421030E9469030E9421030E94390342
S113024082E08093010108950E9421030E944903E2
S11302500E9421030E94590381E0809301010895C3
S1130260882361F00E9421030E9469030E942103F4
S11302700E94390383E0809301010895662361F0AD
S11302800E9421030E9449030E9421030E945903F2
S113029081E08093010108950E9421030E94690373
S11302A00E9421030E94390382E080930101089592
S11302B0662339F00E9421030E9449031092010130
S11302C0089581110CC00E9421030E9449030E94D9
S11302D021030E94590384E08093010108950E9440
S11302E021030E9469030E9421030E94390383E0D1
S11302F0809301010895662361F00E9421030E9406
S113030049030E9421030E94590381E08093010163
S11303100895882361F00E9421030E9469030E94CA
S113032021030E94390383E08093010108950E9410
S113033021030E9449030E9421030E94590384E07F
S1130340809301010895811114C0611109C00E94B4
S113035021030E9489030E9421030E94A903089596
S11303600E9421030E9479030E9421030E94A90391
S11303700895611109C00E9421030E9489030E940B
S113038021030E94990308950E9421030E94890376
S11303900E9421030E94A9030895811114C06111D0
S11303A009C00E9421030E9479030E9421030E9434
S11303B0A90308950E9421030E9479030E94210346
S11303C00E94A9030895611109C00E9421030E949B
S11303D089030E9421030E94990308950E94210326
S11303E00E9489030E9421030E94A9030895811198
S11303F014C0611109C00E9421030E9489030E9454
S113040021030E94990308950E9421030E94790305
S11304100E9421030E94A9030895611109C00E944A
S113042021030E9489030E9421030E9499030895D5
S11304300E9421030E9489030E9421030E94A903B0
S1130440089590910001923009F44FC028F4992343
S113045051F0913039F10895933009F46EC094301D
S113046009F48EC00895811108C00E9421030E94DE
S1130470790381E0809300010895611108C00E940E
S113048021030E94990383E08093000108950E9450
S113049021030E9489030E9421030E94A903109250
S11304A000010895882339F00E9421030E948903E2
S11304B010920001089561110CC00E9421030E9452
S11304C089030E9421030E94990382E08093000122
S11304D008950E9421030E94A9030E9421030E94FF
S11304E0790381E0809300010895882361F00E94DC
S11304F021030E9489030E9421030E94990383E03F
S1130500809300010895662361F00E9421030E94F4
S1130510A9030E9421030E94790381E080930001D2
S113052008950E9421030E9489030E9421030E94CE
S1130530990382E0809300010895662339F00E94B4
S113054021030E94A90310920001089581110CC097
S11305500E9421030E94A9030E9421030E9479039F
S113056084E08093000108950E9421030E9489037E
S11305700E9421030E94990383E08093000108955F
S1130580662361F00E9421030E94A9030E942103B3
S11305900E94790381E0809300010895882361F02B
S11305A00E9421030E9489030E9421030E9499034F
S11305B083E08093000108950E9421030E94A9030F
S11305C00E9421030E94790384E08093000108952E
S11305D086B18078089583B180780895379B02C0EE
S11305E035990AC0379902C0359908C0379B08C0AD
S11305F0359B08C083E0089580E0089581E0089564
S113060083E0089582E00895369B02C034990AC0BD
S1130610369B02C0349B08C0369908C0349908C080
S113062083E0089580E0089581E0089583E00895CB
S113063082E0089586B182FB882780F991E08927BA
S11306400895499B02C04A990AC0499B02C04A9B2B
S113065008C0499908C04A9908C083E0089580E019
S1130660089581E0089583E0089582E008955898FC
S11306700895811102C05B9807C0813011F45C9821
S113068003C0823009F45B980E9437030895589A96
S11306900895811102C05B9A07C0813011F45C9AFD
S11306A003C0823009F45B9A0E94470308952C9892
S11306B00895811102C05C9807C0813011F45B98E1
S11306C003C0823009F45E980E94570308952C9A5F
S11306D00895811102C05C9A07C0813011F45B9ABD
S11306E003C0823009F45E9A0E94670308952D982E
S11306F00895811102C05E9807C0813011F45D989D
S113070003C0823009F45E980E94770308952D9AFD
S11307100895811102C05E9A07C0813011F45D9A78
S113072003C0823009F45E9A0E94870308952E98CC
S11307300895811102C05D9807C0813011F45E985C
S113074003C0823009F45E980E94970308952E9A9C
S11307500895811102C05D9A07C0813011F45E9A38
S113076003C0823009F45C9A0E94A703089583B100
S11307708270089583B18170089583B1887008955B
S113078083B18470089514B817B81AB815B818B896
S11307901BB8289A299A2A9A2B9A479A459A469AD4
S11307A0449A429A599A5A9A2F9A539A549A559A11
S11307B0569A509A249A259A269A80E00E946903B0
S11307C080E00E94490380E00E94890380E00E9447
S11307D0A9038EE290E00E94C505803118F01092C2
S11307E0030102C080930301E1E8F0E080818160AD
S11307F08083109202010F2EF4E8EF2EF12CF02DDD
S11308000E941A0381114BC00E94BA03D82F0E9480
S1130810B703C82F0E94EE02811105C06D2F8C2FE3
S11308200E945E0016C00E94EE02813029F46D2FF2
S11308308C2F0E9488000DC00E94EE02823029F4A1
S11308406D2F8C2F0E94B20004C06D2F8C2F0E943C
S1130850DC000E94BD03D82F0E94C003C82F0E9451
S11308600403811105C06D2F8C2F0E94A301C8CFF2
S11308700E940403813029F46D2F8C2F0E94CD0136
S1130880BFCF0E940403823029F46D2F8C2F0E9465
S1130890F701B6CF6D2F8C2F0E942102B1CF0E9499
S11308A0BD03D82F0E94C003C82F0E94BA03182F7B
S11308B00E94B703E09103014E2F50E040315105EF
S11308C008F084C0FA01E65CFF4F0C94BF05612F69
S11308D00E945E006D2F8C2F0E94A30177C0612FB0
S11308E00E945E006D2F8C2F0E94CD016FC0612F7E
S11308F00E945E006D2F8C2F0E94F70167C0612F4C
S11309000E945E006D2F8C2F0E9421025FC0612F18
S11309100E9488006D2F8C2F0E94A30157C0612F65
S11309200E9488006D2F8C2F0E94CD014FC0612F33
S11309300E9488006D2F8C2F0E94F70147C0612F01
S11309400E9488006D2F8C2F0E9421023FC0612FCE
S11309500E94B2006D2F8C2F0E94A30137C0612F1B
S11309600E94B2006D2F8C2F0E94CD012FC0612FE9
S11309700E94B2006D2F8C2F0E94F70127C0612FB7
S11309800E94B2006D2F8C2F0E9421021FC0612F84
S11309900E94DC006D2F8C2F0E94A30117C0612FD1
S11309A00E94DC006D2F8C2F0E94CD010FC0612F9F
S11309B00E94DC006D2F8C2F0E94F70107C0612F6D
S11309C00E94DC006D2F8C2F0E942102F701808190
S11309D091818F34934C08F4CCC00E94E8028111B9
S11309E01CC00E94B703811115C00E94BA03811173
S11309F011C00E94C00381110DC00E94BD0381116A
S1130A0009C0809102018F5F80930201F701118276
S1130A101082AFC010920201F3CE0E94EB0281114A
S1130A2009C0809102018F5F80930201F701118256
S1130A3010829FC010920201E3CEC4E60E94BD035F
S1130A40182F0E94C003082F0E94BA03D82F0E94B7
S1130A50B703811139C0D1111EC001110EC011118B
S1130A6006C060E08EE290E00E94CD056AC061E0BD
S1130A708EE290E00E94CD0564C0111106C062E0D0
S1130A808EE290E00E94CD055CC063E08EE290E0CF
S1130A900E94CD0556C0011109C0112309F44CC0B0
S1130AA064E08EE290E00E94CD054BC0111106C0B7
S1130AB066E08EE290E00E94CD0543C067E08EE2DE
S1130AC090E00E94CD053DC0D1111EC001110EC0A1
S1130AD0111106C068E08EE290E00E94CD0531C09D
S1130AE069E08EE290E00E94CD052BC0111106C092
S1130AF06AE08EE290E00E94CD0523C06BE08EE2B6
S1130B0090E00E94CD051DC001110EC0111106C058
S1130B106CE08EE290E00E94CD0513C06DE08EE2A1
S1130B2090E00E94CD050DC0111106C06EE08EE26A
S1130B3090E00E94CD0505C06FE08EE290E00E9437
S1130B40CD0581EE94E00197F1F700C000008EE23C
S1130B5090E00E94C50580930301E3EDF0E3319733
S1130B60F1F700C00000C15009F068CF10920201F3
S1130B7047CE80910201853608F05FCF41CEEE0F5B
S1130B80FF1F0590F491E02D0994F999FECF92BDD1
S1130B9081BDF89A992780B50895262FF999FECF3B
S1130BA092BD81BDF89A019700B4021639F01FBABC
S1130BB020BD0FB6F894FA9AF99A0FBE0895F894E6
S1050BC0FFCF61
S9030000FC
